:020000040800F2
:1000000000500020692200086D20000875200008BB
:100010007D200008852000088D20000800000000D9
:100020000000000000000000000000009520000813
:10003000A120000800000000AD200008B920000841
:10004000B1220008B1220008B1220008B122000844
:10005000B1220008B1220008B1220008B122000834
:10006000B1220008B1220008B1220008B122000824
:10007000B1220008B1220008B1220008B122000814
:10008000B1220008B1220008B1220008B122000804
:10009000B1220008B1220008B1220008B1220008F4
:1000A000B1220008B1220008B1220008B1220008E4
:1000B000B1220008B1220008B1220008B1220008D4
:1000C000B1220008B1220008B1220008B1220008C4
:1000D000C5200008B1220008B1220008B1220008A2
:1000E000B1220008B1220008B1220008000000007F
:1000F0000000000000000000000000000000000000
:0C01000000000000000000005FF808F1A3
:1001100010B5054C237833B9044B13B10448AFF341
:1001200000800123237010BDDC01002000000000CE
:100130009889000808B5034B1BB103490348AFF386
:10014000008008BD00000000E00100209889000840
:10015000034613F8012B002AFBD1181A0138704707
:1001600081F0004102E000BF83F0004330B54FEA68
:1001700041044FEA430594EA050F08BF90EA020FD5
:100180001FBF54EA000C55EA020C7FEA645C7FEA68
:10019000655C00F0E2804FEA5454D4EB5555B8BF8B
:1001A0006D420CDD2C4480EA020281EA030382EAFC
:1001B000000083EA010180EA020281EA0303362D8E
:1001C00088BF30BD11F0004F4FEA01314FF4801C61
:1001D0004CEA113102D0404261EB410113F0004F73
:1001E0004FEA03334CEA133302D0524263EB43032A
:1001F00094EA050F00F0A780A4F10104D5F1200EC8
:100200000DDB02FA0EFC22FA05F2801841F1000122
:1002100003FA0EF2801843FA05F359410EE0A5F1F6
:1002200020050EF1200E012A03FA0EFC28BF4CF027
:10023000020C43FA05F3C01851EBE37101F00045DD
:1002400007D54FF0000EDCF1000C7EEB00006EEBEA
:100250000101B1F5801F1BD3B1F5001F0CD3490874
:100260005FEA30004FEA3C0C04F101044FEA4452CB
:1002700012F5800F80F09A80BCF1004F08BF5FEA52
:10028000500C50F1000041EB045141EA050130BD32
:100290005FEA4C0C404141EB0101013C28BFB1F544
:1002A000801FE9D291F0000F04BF01460020B1FA8F
:1002B00081F308BF2033A3F10B03B3F120020CDA62
:1002C0000C3208DD02F1140CC2F10C0201FA0CF040
:1002D00021FA02F10CE002F11402D8BFC2F1200CA5
:1002E00001FA02F120FA0CFCDCBF41EA0C0190405B
:1002F000E41AA2BF01EB0451294330BD6FEA0404A4
:100300001F3C1CDA0C340EDC04F11404C4F120028E
:1003100020FA04F001FA02F340EA030021FA04F3A0
:1003200045EA030130BDC4F10C04C4F1200220FAF7
:1003300002F001FA04F340EA0300294630BD21FA35
:1003400004F0294630BD94F0000F83F4801306BFFB
:1003500081F480110134013D4EE77FEA645C18BFEF
:100360007FEA655C29D094EA050F08BF90EA020F86
:1003700005D054EA000C04BF1946104630BD91EA7E
:10038000030F1EBF0021002030BD5FEA545C05D181
:100390004000494128BF41F0004130BD14F58004C0
:1003A0003CBF01F5801130BD01F0004545F0FE4134
:1003B00041F470014FF0000030BD7FEA645C1ABF69
:1003C000194610467FEA655C1CBF0B46024650EAA0
:1003D000013406BF52EA033591EA030F41F40021CC
:1003E00030BD00BF90F0000F04BF0021704730B552
:1003F0004FF4806404F132044FF000054FF0000127
:1004000050E700BF90F0000F04BF0021704730B5E7
:100410004FF4806404F1320410F0004548BF4042BC
:100420004FF000013EE700BF42004FEAE2014FEA11
:1004300031014FEA02701FBF12F07F4393F07F4FEC
:1004400081F06051704732F07F4208BF704793F0EF
:100450007F4F04BF41F40021704730B54FF4607402
:1004600001F0004521F000411CE700BF50EA010205
:1004700008BF704730B54FF000050AE050EA0102AE
:1004800008BF704730B511F0004502D5404261EB1E
:1004900041014FF4806404F132045FEA915C3FF45F
:1004A000D8AE4FF003025FEADC0C18BF03325FEAFC
:1004B000DC0C18BF033202EBDC02C2F1200300FAAD
:1004C00003FC20FA02F001FA03FE40EA0E0021FAD2
:1004D00002F11444BDE600BF70B54FF0FF0C4CF4C0
:1004E000E06C1CEA11541DBF1CEA135594EA0C0F72
:1004F00095EA0C0F00F0DEF82C4481EA030621EAAD
:100500004C5123EA4C5350EA013518BF52EA0335E7
:1005100041F4801143F4801338D0A0FB02CE4FF099
:100520000005E1FB02E506F00042E0FB03E54FF0C9
:100530000006E1FB03569CF0000F18BF4EF0010EC1
:10054000A4F1FF04B6F5007F64F5407404D25FEABD
:100550004E0E6D4146EB060642EAC62141EA555170
:100560004FEAC52040EA5E504FEACE2EB4F1FD0CB2
:1005700088BFBCF5E06F1ED8BEF1004F08BF5FEA30
:10058000500E50F1000041EB045170BD06F00046E2
:1005900046EA010140EA020081EA0301B4EB5C048F
:1005A000C2BFD4EB0C0541EA045170BD41F4801187
:1005B0004FF0000E013C00F3AB8014F1360FDEBFAC
:1005C000002001F0004170BDC4F10004203C35DA88
:1005D0000C341BDC04F11404C4F1200500FA05F30B
:1005E00020FA04F001FA05F240EA020001F00042AC
:1005F00021F0004110EBD37021FA04F642EB060122
:100600005EEA430E08BF20EAD37070BDC4F10C044B
:10061000C4F1200500FA04F320FA05F001FA04F20F
:1006200040EA020001F0004110EBD37041F10001FB
:100630005EEA430E08BF20EAD37070BDC4F1200506
:1006400000FA05F24EEA020E20FA04F301FA05F26E
:1006500043EA020321FA04F001F0004121FA04F216
:1006600020EA020000EBD3705EEA430E08BF20EAE6
:10067000D37070BD94F0000F0FD101F00046400020
:1006800041EB010111F4801F08BF013CF7D041EAA2
:10069000060195F0000F18BF704703F000465200A6
:1006A00043EB030313F4801F08BF013DF7D043EA77
:1006B0000603704794EA0C0F0CEA135518BF95EA2D
:1006C0000C0F0CD050EA410618BF52EA4306D1D1B4
:1006D00081EA030101F000414FF0000070BD50EAD3
:1006E000410606BF1046194652EA430619D094EA5D
:1006F0000C0F02D150EA013613D195EA0C0F05D147
:1007000052EA03361CBF104619460AD181EA03019A
:1007100001F0004141F0FE4141F470014FF0000052
:1007200070BD41F0FE4141F4780170BD70B54FF0ED
:10073000FF0C4CF4E06C1CEA11541DBF1CEA13556D
:1007400094EA0C0F95EA0C0F00F0A7F8A4EB05044F
:1007500081EA030E52EA03354FEA013100F0888046
:100760004FEA03334FF0805545EA131343EA12630F
:100770004FEA022245EA111545EA10654FEA0026C4
:100780000EF000419D4208BF964244F1FD0404F57D
:10079000407402D25B084FEA3202B61A65EB0305D9
:1007A0005B084FEA32024FF480104FF4002CB6EB96
:1007B000020E75EB030E22BFB61A754640EA0C0016
:1007C0005B084FEA3202B6EB020E75EB030E22BF56
:1007D000B61A754640EA5C005B084FEA3202B6EB97
:1007E000020E75EB030E22BFB61A754640EA9C0056
:1007F0005B084FEA3202B6EB020E75EB030E22BF26
:10080000B61A754640EADC0055EA060E18D04FEAE3
:10081000051545EA16754FEA06164FEAC30343EA83
:1008200052734FEAC2025FEA1C1CC0D111F4801F50
:100830000BD141EA00014FF000004FF0004CB6E749
:1008400011F4801F04BF01430020B4F1FD0C88BFE8
:10085000BCF5E06F3FF6AFAEB5EB030C04BFB6EBF3
:10086000020C5FEA500C50F1000041EB045170BDE6
:100870000EF0004E4EEA113114EB5C04C2BFD4EB13
:100880000C0541EA045170BD41F480114FF0000E97
:10089000013C90E645EA060E8DE60CEA135594EA13
:1008A0000C0F08BF95EA0C0F3FF43BAF94EA0C0F16
:1008B0000AD150EA01347FF434AF95EA0C0F7FF48B
:1008C00025AF104619462CE795EA0C0F06D152EADF
:1008D00003353FF4FDAE1046194622E750EA4106C3
:1008E00018BF52EA43067FF4C5AE50EA41047FF4D4
:1008F0000DAF52EA43057FF4EBAE12E74FF0FF3C39
:1009000006E000BF4FF0010C02E000BF4FF0010C09
:100910004DF804CD4FEA410C7FEA6C5C4FEA430C82
:1009200018BF7FEA6C5C1BD001B050EA410C0CBFD1
:1009300052EA430C91EA030F02BF90EA020F002033
:10094000704710F1000F91EA030F58BF994208BF9A
:1009500090422CBFD8176FEAE37040F00100704757
:100960004FEA410C7FEA6C5C02D150EA013C07D1AE
:100970004FEA430C7FEA6C5CD6D152EA033CD3D0F9
:100980005DF8040B704700BF8446104662468C46F3
:100990001946634600E000BF01B5FFF7B7FF002826
:1009A00048BF10F1000F01BD4DF808EDFFF7F4FF4F
:1009B0000CBF012000205DF808FB00BF4DF808EDDA
:1009C000FFF7EAFF34BF012000205DF808FB00BFFD
:1009D0004DF808EDFFF7E0FF94BF012000205DF81F
:1009E00008FB00BF4DF808EDFFF7CEFF94BF0120D4
:1009F00000205DF808FB00BF4DF808EDFFF7C4FFCD
:100A000034BF012000205DF808FB00BF4FEA410C15
:100A10007FEA6C5C02D150EA013C0AD14FEA430CF8
:100A20007FEA6C5C02D152EA033C02D14FF0000035
:100A300070474FF0010070474FEA410212F5001273
:100A400015D211D56FF47873B3EB625212D94FEA15
:100A5000C12343F0004343EA505311F0004F23FAFF
:100A600002F018BF404270474FF00000704750EA54
:100A7000013005D111F0004008BF6FF00040704711
:100A80004FF00000704700BF4FEA4102B2F1E0436F
:100A900024BFB3F5001CDCF1FE5C0DD901F0004C65
:100AA0004FEAC0024CEA5070B2F1004F40EB8300B5
:100AB00008BF20F00100704711F0804F21D113F1E1
:100AC0003872BCBF01F00040704741F480114FEA1A
:100AD0005252C2F11802C2F1200C10FA0CF320FAA3
:100AE00002F018BF40F001004FEAC1234FEAD323C0
:100AF00003FA0CFC40EA0C0023FA02F34FEA43032A
:100B0000CCE77FEA625307D150EA01331EBF4FF0B2
:100B1000FE4040F44000704701F0004040F0FE40CD
:100B200040F40000704700BF80F0004002E000BFCA
:100B300081F0004142001FBF5FEA410392EA030FC8
:100B40007FEA226C7FEA236C6AD04FEA1262D2EB12
:100B50001363C1BFD218414048404140B8BF5B4217
:100B6000192B88BF704710F0004F40F4000020F0B0
:100B70007F4018BF404211F0004F41F4000121F0C6
:100B80007F4118BF494292EA030F3FD0A2F1010210
:100B900041FA03FC10EB0C00C3F1200301FA03F14E
:100BA00000F0004302D5494260EB4000B0F5000F71
:100BB00013D3B0F1807F06D340084FEA310102F130
:100BC0000102FE2A51D2B1F1004F40EBC25008BFE2
:100BD00020F0010040EA03007047490040EB0000AC
:100BE000013A28BFB0F5000FEDD2B0FA80FCACF1AD
:100BF000080CB2EB0C0200FA0CF0AABF00EBC250DA
:100C000052421843BCBFD0401843704792F0000FC7
:100C100081F4000106BF80F400000132013BB5E71A
:100C20004FEA41037FEA226C18BF7FEA236C21D090
:100C300092EA030F04D092F0000F08BF08467047F5
:100C400090EA010F1CBF0020704712F07F4F04D1C3
:100C5000400028BF40F00040704712F100723CBFD6
:100C600000F50000704700F0004343F0FE4040F400
:100C7000000070477FEA226216BF08467FEA2363BE
:100C80000146420206BF5FEA412390EA010F40F4A9
:100C9000800070474FF0000304E000BF10F00043F5
:100CA00048BF40425FEA000C08BF704743F09643DC
:100CB00001464FF000001CE050EA010208BF7047F7
:100CC0004FF000030AE000BF50EA010208BF70477E
:100CD00011F0004302D5404261EB41015FEA010C93
:100CE00002BF84460146002043F0B64308BFA3F18B
:100CF0008053A3F50003BCFA8CF2083AA3EBC2536D
:100D000010DB01FA02FC634400FA02FCC2F120028B
:100D1000BCF1004F20FA02F243EB020008BF20F0C2
:100D20000100704702F1200201FA02FCC2F1200228
:100D300050EA4C0021FA02F243EB020008BF20EA1D
:100D4000DC7070474FF0FF0C1CEAD0521EBF1CEA4B
:100D5000D15392EA0C0F93EA0C0F6FD01A4480EA39
:100D6000010C400218BF5FEA41211ED04FF0006322
:100D700043EA501043EA5111A0FB01310CF000404E
:100D8000B1F5000F3EBF490041EAD3715B0040EA74
:100D9000010062F17F02FD2A1DD8B3F1004F40EB44
:100DA000C25008BF20F00100704790F0000F0CF017
:100DB000004C08BF49024CEA502040EA51207F3ADB
:100DC000C2BFD2F1FF0340EAC250704740F40000B6
:100DD0004FF00003013A5DDC12F1190FDCBF00F0A7
:100DE00000407047C2F10002410021FA02F1C2F155
:100DF000200200FA02FC5FEA310040F1000053EAF1
:100E00004C0308BF20EADC70704792F0000F00F03E
:100E1000004C02BF400010F4000F013AF9D040EA44
:100E20000C0093F0000F01F0004C02BF490011F4D8
:100E3000000F013BF9D041EA0C018FE70CEAD153D6
:100E400092EA0C0F18BF93EA0C0F0AD030F0004C56
:100E500018BF31F0004CD8D180EA010000F000400A
:100E6000704790F0000F17BF90F0004F084691F0C8
:100E7000000F91F0004F14D092EA0C0F01D1420202
:100E80000FD193EA0C0F03D14B0218BF084608D1CB
:100E900080EA010000F0004040F0FE4040F4000015
:100EA000704740F0FE4040F4400070474FF0FF0CA8
:100EB0001CEAD0521EBF1CEAD15392EA0C0F93EAEF
:100EC0000C0F69D0A2EB030280EA010C49024FEA41
:100ED000402037D04FF0805343EA111143EA1013FA
:100EE0000CF000408B4238BF5B0042F17D024FF4B2
:100EF000000C8B4224BF5B1A40EA0C00B3EB510F8D
:100F000024BFA3EB510340EA5C00B3EB910F24BF75
:100F1000A3EB910340EA9C00B3EBD10F24BFA3EBFA
:100F2000D10340EADC001B0118BF5FEA1C1CE0D1C2
:100F3000FD2A3FF650AF8B4240EBC25008BF20F075
:100F4000010070470CF0004C4CEA50207F32C2BFC9
:100F5000D2F1FF0340EAC250704740F400004FF066
:100F60000003013A37E792F0000F00F0004C02BF97
:100F7000400010F4000F013AF9D040EA0C0093F061
:100F8000000F01F0004C02BF490011F4000F013BBB
:100F9000F9D041EA0C0195E70CEAD15392EA0C0F23
:100FA00008D142027FF47DAF93EA0C0F7FF470AF5B
:100FB000084676E793EA0C0F04D14B023FF44CAF9E
:100FC00008466EE730F0004C18BF31F0004CCAD133
:100FD00030F000427FF45CAF31F000437FF43CAF6F
:100FE0005FE700BF80B500AF01224FF48071024877
:100FF00002F093F800BF80BD0008014080B500AF4B
:1010000000224FF48071024802F087F800BF80BDD3
:101010000008014080B500AF01224FF48061024812
:1010200002F07BF800BF80BD0008014080B500AF32
:1010300000224FF48061024802F06FF800BF80BDCB
:101040000008014080B584B000AF03463960FB71F1
:101050001346BB71FB7943F02003DBB2FB73FFF750
:10106000CDFF07F10F014FF47A730122084803F016
:10107000EBFDBB799AB24FF47A733968044803F0F8
:10108000E3FDFFF7AFFF00BF1037BD4680BD00BFD7
:10109000AC02002080B584B000AF03460A46FB7165
:1010A0001346BB71FB79FB730023BB73FFF7A6FFED
:1010B00007F10F014FF47A730122094803F0C4FDD0
:1010C000BB799AB207F10E014FF47A73044803F02A
:1010D000FFFEFFF787FFBB7B18461037BD4680BD7C
:1010E000AC02002080B582B000AF0346FB71F91D51
:1010F0004FF47A730122034803F0A6FD00BF0837BE
:10110000BD4680BDAC02002080B582B000AF002398
:10111000FB7101210020FFF7BDFF0346FB71FB7946
:1011200043F00203DBB2FB71FB1D012219460020D4
:10113000FFF788FF00BF0837BD4680BD80B584B08B
:1011400000AF0346FB710023FB7301210620FFF76C
:10115000A1FF0346FB73FB7B23F04703DBB2FB736A
:1011600097F907305B005AB2FB7B5BB213435BB26B
:10117000DBB2FB7307F10F03012219460620FFF7CC
:1011800061FF00BF1037BD4680BD80B584B000AFA1
:101190000346FB710023FB7301210620FFF77AFF52
:1011A0000346FB73FB7B23F02803DBB2FB73FB7965
:1011B000012B05D1FB7B43F00803DBB2FB7307E097
:1011C000FB79022B04D1FB7B43F02003DBB2FB73E2
:1011D00007F10F03012219460620FFF733FF00BF76
:1011E0001037BD4680BD80B582B000AF0346FB71AD
:1011F000FB1D012219460520FFF724FF00BF083719
:10120000BD4680BD80B582B000AF786005227968A8
:101210001020FFF717FF00BF0837BD4680BD000054
:1012200080B582B000AF03460A46FB711346BB711E
:10123000BB79202B01D92023BB71FB79052B39D831
:1012400001A252F823F000BF611200086F120008DB
:101250007D1200088B12000899120008A7120008DE
:10126000BB1D012219461120FFF7ECFE22E0BB1D39
:10127000012219461220FFF7E5FE1BE0BB1D0122EB
:1012800019461320FFF7DEFE14E0BB1D01221946AC
:101290001420FFF7D7FE0DE0BB1D012219461520D3
:1012A000FFF7D0FE06E0BB1D012219461620FFF70E
:1012B000C9FE00BF00BF0837BD4680BD80B584B001
:1012C00000AF03460A46FB711346BB7101210020A3
:1012D000FFF7E0FE0346FB73FB7B23F00C03DBB25E
:1012E000FB7397F90730DB005AB297F906309B0081
:1012F0005BB213435AB2FB7B5BB213435BB2DBB20C
:10130000FB7307F10F03012219460020FFF79AFE35
:1013100000BF1037BD4680BD80B500AFFFF76EFE41
:10132000E120FFF7DFFEFFF75DFE00BF80BD80B567
:1013300000AFFFF763FEE220FFF7D4FEFFF752FE97
:1013400000BF80BD80B584B002AF0023FB71FF23D6
:10135000BB71FFF753FEFA1DB91D4FF47A7300936A
:101360000123054803F0CDFEFFF73CFEFB7918464C
:101370000837BD4680BD00BFAC02002080B582B0FA
:1013800000AF0023FB71FFF7DDFF0346FB71FB7924
:1013900043F04003DBB2FB71FB1D0122194607201D
:1013A000FFF750FE00BF0837BD4680BD80B582B054
:1013B00000AF0023FB71FFF7C5FF0346FB71FB790C
:1013C00043F02003DBB2FB71FB1D0122194607200D
:1013D000FFF738FE00BF0837BD4680BD80B582B03C
:1013E00000AF0023FB71FFF7ADFF0346FB71FB79F4
:1013F00043F01003DBB2FB71FB1D012219460720ED
:10140000FFF720FE00BF0837BD4680BD80B582B023
:1014100000AF0023FB7101210020FFF73BFE0346D4
:10142000FB71FB7923F00103DBB2FB71FB1D012291
:1014300019460020FFF706FE00BF0837BD4680BDF5
:1014400080B584B000AF78600B46FB70FFF7EEFD0F
:10145000A023FB73FFF7D2FD07F10F014FF47A735E
:101460000122134803F0F0FBFB789AB24FF47A7331
:1014700079680F4803F0E8FBFFF7B4FDFFF7CAFDFA
:10148000012000F079FFFFF7D1FDFFF75BFF034676
:1014900003F01003002B05D0FFF7A0FFFFF73CFF80
:1014A000012300E0002318461037BD4680BD00BF71
:1014B000AC02002080B500AFFFF726FEFFF72CFF3F
:1014C000FFF735FFFFF75AFFFFF770FFFFF786FFC3
:1014D00000BF80BD00000000F0B59FB004AF00F079
:1014E000E9FE00F0B7F900F025FB00F0C3FA00F0C8
:1014F00007FA00F091FA00F051FA00F0F1FA00F06A
:101500009FFBFFF76FFDFFF7D5FF0320FFF716FEE8
:101510000120FFF73AFE00210120FFF7CFFE6420F3
:10152000FFF761FE08210020FFF77AFE9648FFF7DB
:1015300069FEFFF76BFF954801F01AF8944801F037
:1015400017F800F0A3FB0346002B00F0B18000F079
:10155000C9FB03468F4A136000F0DEFB03468E4A48
:10156000136000F0F3FB03468C4A13608A4B1B6840
:101570001846FEF759FF7CA3D3E90023FFF71EFAB4
:101580000346002B10D0844B1B681846FEF74CFF17
:1015900077A3D3E90023FFF72FFA0346002B03D0EC
:1015A0007D4B4FF000021A607B4B1B684FF07E5161
:1015B0001846FFF7BFFA03461A46794B1A60784B74
:1015C0001B681846FEF730FF4FF00002754BFEF720
:1015D00083FF02460B464FF000007349FEF7C4FD3F
:1015E00002460B4610461946FFF74EFA03466F4A6D
:1015F00013604FF480716E4801F078FD0346012BB3
:101600000CD16C4B1B785BB203F00F035BB243F061
:1016100010035BB2DAB2674B1A7006E0654B1B78B9
:1016200003F00F03DAB2634B1A705A4B1B6818466B
:10163000FEF7FAFE50A3D3E90023FFF7C9F90346EA
:10164000002B0CD05B4B1B785BB223F00F035BB21B
:1016500043F001035BB2DAB2564B1A7025E04D4BF2
:101660001B681846FEF7E0FE45A3D3E90023FFF709
:10167000B9F90346002B0CD04E4B1B785BB223F01C
:101680000F035BB243F004035BB2DAB2494B1A704A
:101690000BE0484B1B785BB223F00F035BB243F0C7
:1016A00002035BB2DAB2434B1A70C82000F064FE4A
:1016B000374801F09FF903463F4A13603E4B1B68D1
:1016C0009AB23E4B1A803C4B1B681B0C9AB23C4BA7
:1016D0001A803A4B1B881A46652302FB03F31B133F
:1016E000DAB2384B1A70334B1A78374B1A702F4BCB
:1016F0001B68354A5360334B1A78334B5A700821B4
:101700003148FFF79DFE2E4B1B881A46642302FBCF
:1017100003F31B139AB22D4B1A802C4B1B88212BE1
:101720000CD801224FF40051294801F0F6FC0022A8
:101730004FF40041264801F0F0FC57E0234B1B8892
:10174000212B47D9214B1B88422B43D801224FF430
:1017500080411F4801F0E1FC00224FF400511C4879
:1017600001F0DBFC42E000BF9A9999999999C93F31
:101770009A9999999999C9BF9A9999999999E9BF0B
:101780009A9999999999E93F000000202802002030
:10179000F80100206003002064030020680300209B
:1017A0006C03002000004E40004075407003002094
:1017B000000C0140060000205C03002054030020C0
:1017C00058030020050000204C0300205603002091
:1017D0000010014001224FF40041194801F09DFC26
:1017E00000224FF48041164801F097FC154B1B88EE
:1017F0001E46154B1B781C46134B5B781D46124B3F
:101800005B681846FEF710FE02460B463846CDE9E7
:1018100002230195009433460C4A642104F06AFFC8
:1018200078667B6E9AB239464FF0FF33084804F071
:1018300070F8642000F0A0FD0F2000F09DFD7AE616
:1018400000100140560300204C030020B08900081E
:101850000403002080B594B000AF07F128032822CC
:101860000021184604F0BFFF07F1140300221A609C
:101870005A609A60DA601A613B1D00221A605A6051
:101880009A60DA600223BB620123BB631023FB630F
:1018900002237B640023BB644FF40023FB6407F145
:1018A0002803184602F086FC0346002B01D000F006
:1018B000C1F90F237B610223BB610023FB6100237D
:1018C0003B6200237B6207F114030021184602F0FB
:1018D000F3FE0346002B01D000F0ACF902237B603D
:1018E0000023FB603B1D184603F074F80346002BF1
:1018F00001D000F09FF900BF5037BD4680BD000009
:1019000080B584B000AF0023FB603B4600221A6024
:101910005A609A601F4B204A1A601E4B00229A6040
:101920001C4B01221A731B4B00221A75194B4FF4E2
:101930006022DA61174B00225A60164B01221A61AD
:10194000144800F03DFD0346002B01D000F072F971
:101950004FF4C023FB6007F10C0319460D4801F05A
:1019600069F80346002B01D000F064F900233B60C6
:1019700001237B600023BB603B461946054800F00D
:10198000A5FE0346002B01D000F054F900BF10372C
:10199000BD4680BDF80100200024014080B584B020
:1019A00000AF3B1D00221A605A609A60184B194A1A
:1019B0001A60174B00229A60154B01221A73144BC0
:1019C00000221A75124B4FF46022DA61104B00228C
:1019D0005A600F4B01221A610D4800F0F1FC0346DA
:1019E000002B01D000F026F904237B600123BB60AB
:1019F0000023FB603B1D1946054800F067FE0346C7
:101A0000002B01D000F016F900BF1037BD4680BD95
:101A1000280200200028014080B500AF124B134A75
:101A20001A60114B124A5A600F4B00229A600E4BFB
:101A30000022DA600C4B4FF480421A610A4B0022FC
:101A40005A61094B00229A61074B0022DA61064B6A
:101A500000221A62044801F079FB0346002B01D0F2
:101A600000F0E8F800BF80BD58020020005400409C
:101A7000A086010080B500AF174B184A1A60164BBC
:101A80004FF482725A60144B00229A60124B00226B
:101A9000DA60114B00221A610F4B00225A610E4B83
:101AA0004FF400729A610C4B0022DA610A4B00225B
:101AB0001A62094B00225A62074B00229A62064BB7
:101AC0000A22DA62044803F03BF80346002B01D0F7
:101AD00000F0B0F800BF80BDAC020020003800402C
:101AE00080B500AF114B124A1A60104B4FF41652DA
:101AF0005A600E4B00229A600C4B0022DA600B4BAE
:101B000000221A61094B0C225A61084B00229A618B
:101B1000064B0022DA61054803F0ABFE0346002BBA
:101B200001D000F087F800BF80BD00BF0403002093
:101B30000048004080B588B000AF07F110030022D4
:101B40001A605A609A60DA60354B9B69344A43F0F8
:101B500010039361324B9B6903F01003FB60FB6839
:101B60002F4B9B692E4A43F0040393612C4B9B69D6
:101B700003F00403BB60BB68294B9B69284A43F010
:101B800008039361264B9B6903F008037B607B6825
:101B900000224FF46041234801F0BFFA00224FF4C5
:101BA000A061214801F0B9FA4FF460433B61012381
:101BB0007B610023BB610223FB6107F1100319461F
:101BC000184801F00FF94FF4A0633B6101237B61DA
:101BD0000023BB610323FB6107F110031946124880
:101BE00001F000F94FF400733B61104B7B6100235F
:101BF000BB6107F1100319460B4801F0F3F84FF4ED
:101C000080733B6100237B610223BB6107F11003FA
:101C10001946074801F0E6F800BF2037BD4680BDF1
:101C20000010024000100140000801400000211097
:101C3000000C014080B400AF72B600BF00BFFDE7EA
:101C400080B582B002AF0F4B6B221A700D4B002291
:101C50005A706423009302230A4AD0210A4801F0F3
:101C6000B9FB084B19221A70064B07225A706423DD
:101C700000930223034AD021034801F0ABFB00BFCD
:101C8000BD4680BD740300205802002080B584B09A
:101C900002AF114B3B221A700F4B00225A70642383
:101CA000009301230C4AD0210C4801F093FB6423DC
:101CB00000930E230A4AD021084801F089FC03460C
:101CC000FB71FB79002B0CBF01230023DBB218460C
:101CD0000837BD4680BD00BF7403002058020020B5
:101CE0007803002080B500AF0A4B1B781BB21B02A3
:101CF0001AB2084B5B781BB213431BB21846FEF7AF
:101D0000CDFF03464FF08D411846FFF7CFF803464D
:101D1000184680BD7803002080B500AF0A4B9B7841
:101D20001BB21B021AB2084BDB781BB213431BB267
:101D30001846FEF7B3FF03464FF08D411846FFF7F4
:101D4000B5F80346184680BD7803002080B500AF83
:101D50000A4B1B791BB21B021AB2084B5B791BB2F0
:101D600013431BB21846FEF799FF03464FF08D410F
:101D70001846FFF79BF80346184680BD78030020FD
:101D800080B485B000AF154B9B69144A43F0010342
:101D90009361124B9B6903F00103BB60BB680F4B5F
:101DA000DB690E4A43F08053D3610C4BDB6903F0CF
:101DB00080537B607B680A4B5B68FB60FB6823F0A9
:101DC000E063FB60FB6843F00073FB60044AFB6860
:101DD000536000BF1437BD4680BC704700100240FE
:101DE0000000014080B58AB000AF786007F11803A9
:101DF00000221A605A609A60DA607B681B68284A81
:101E0000934222D1274B9B69264A43F40073936186
:101E1000244B9B6903F400737B617B69214B9B69B5
:101E2000204A43F0040393611E4B9B6903F00403B3
:101E30003B613B690123BB610323FB6107F118038D
:101E40001946194800F0CEFF26E07B681B68174A48
:101E5000934221D1134B9B69124A43F480639361EF
:101E6000104B9B6903F48063FB60FB680D4B9B691F
:101E70000C4A43F0040393610A4B9B6903F004038B
:101E8000BB60BB681023BB610323FB6107F1180330
:101E90001946054800F0A6FF00BF2837BD4680BDA3
:101EA00000240140001002400008014000280140C9
:101EB00080B588B000AF786007F1100300221A6087
:101EC0005A609A60DA607B681B68154A934223D196
:101ED000144B9B69134A43F008039361114B9B69B0
:101EE00003F00803FB60FB68C0233B6112237B61A6
:101EF0000323FB6107F1100319460B4800F072FF42
:101F0000084BDB69074A43F40013D361054BDB69D7
:101F100003F40013BB60BB6800BF2037BD4680BD23
:101F20000054004000100240000C014080B588B011
:101F300000AF786007F1100300221A605A609A60BF
:101F4000DA607B681B68204A934239D11F4BDB69FA
:101F50001E4A43F48043D3611C4BDB6903F4804386
:101F6000FB60FB68194B9B69184A43F008039361B7
:101F7000164B9B6903F00803BB60BB684FF420431A
:101F80003B6102237B610323FB6107F110031946C8
:101F90000F4800F027FF4FF480433B6100237B6133
:101FA0000023BB6107F110031946094800F01AFF2E
:101FB00000220021242000F066FE242000F07FFE95
:101FC00000BF2037BD4680BD0038004000100240F1
:101FD000000C014080B588B000AF786007F11003B5
:101FE00000221A605A609A60DA607B681B681C4A9B
:101FF000934231D11B4BDB691A4A43F48023D361EE
:10200000184BDB6903F48023FB60FB68154B9B696D
:10201000144A43F008039361124B9B6903F00803D1
:10202000BB60BB684FF480633B6102237B61032389
:10203000FB6107F1100319460B4800F0D3FE4FF483
:1020400000633B6100237B610023BB6107F1100348
:102050001946054800F0C6FE00BF2037BD4680BDCA
:102060000048004000100240000C014080B400AF66
:1020700000BFFDE780B400AF00BFFDE780B400AF54
:1020800000BFFDE780B400AF00BFFDE780B400AF44
:1020900000BFFDE780B400AF00BFBD4680BC704705
:1020A00080B400AF00BFBD4680BC704780B400AFB5
:1020B00000BFBD4680BC704780B500AF00F040F95E
:1020C00000BF80BD80B500AF024803F0C3F900BF78
:1020D00080BD00BFAC02002080B400AF01231846D1
:1020E000BD4680BC704780B582B000AF7860396073
:1020F00004F0CCFB034616221A604FF0FF3318465B
:102100000837BD4680BD80B582B000AF78604FF023
:10211000FF317868FFF7E7FF00BFFDE780B586B0C5
:1021200000AFF860B9607A6000237B610AE0AFF32A
:1021300000800146BB685A1CBA60CAB21A707B693B
:1021400001337B617A697B689A42F0DB7B681846D1
:102150001837BD4680BD80B586B000AFF860B96065
:102160007A6000237B6109E0BB685A1CBA601B7867
:102170001846AFF300807B6901337B617A697B6825
:102180009A42F1DB7B6818461837BD4680BD80B4A3
:1021900083B000AF78604FF0FF3318460C37BD4670
:1021A00080BC704780B483B000AF786039603B6812
:1021B0004FF400525A60002318460C37BD4680BCCD
:1021C000704780B483B000AF7860012318460C37A5
:1021D000BD4680BC704780B485B000AFF860B96080
:1021E0007A60002318461437BD4680BC7047000053
:1021F00080B586B000AF7860144A154BD31A7B6166
:102200007B693B61134B1B68002B02D1114B124AB7
:102210001A60104B1A687B6813443A699A4207D2D5
:1022200004F034FB03460C221A604FF0FF3309E040
:10223000084B1B68FB60074B1A687B681344054A10
:102240001360FB6818461837BD4680BD005000205B
:102250000004000088030020E004002080B400AFE8
:1022600000BFBD4680BC7047FFF7F8FF0B480C4924
:102270000C4A002302E0D458C4500433C4188C42E2
:10228000F9D3094A094C002301E013600432A24249
:10229000FBD304F001FBFFF71FF97047000000209B
:1022A000DC010020848D0008DC010020DC0400201B
:1022B000FEE7000080B500AF084B1B68074A43F0FB
:1022C00010031360032000F0D3FC0F2000F008F887
:1022D000FFF756FD0023184680BD00BF00200240D6
:1022E00080B582B000AF7860124B1A68124B1B7831
:1022F00019464FF47A73B3FBF1F3B2FBF3F31846CC
:1023000000F0EBFC0346002B01D001230EE07B68BC
:102310000F2B0AD8002279684FF0FF3000F0B3FC91
:10232000064A7B681360002300E001231846083743
:10233000BD4680BD08000020100000200C000020D9
:1023400080B400AF054B1B781A46054B1B6813443D
:10235000034A136000BFBD4680BC704710000020D8
:102360008C03002080B400AF024B1B681846BD46AA
:1023700080BC70478C03002080B584B000AF7860CB
:10238000FFF7F0FFB8607B68FB60FB68B3F1FF3FCD
:1023900005D00A4B1B781A46FB681344FB6000BF4C
:1023A000FFF7E0FF0246BB68D31AFA689A42F7D8F3
:1023B00000BF00BF1037BD4680BD00BF1000002029
:1023C00080B586B000AF78600023FB7500233B61C9
:1023D0000023BB600023FB607B68002B01D101233D
:1023E000BEE07B689B68002B7B689B6A002B09D151
:1023F0007B680022DA627B68002283F824207868F8
:10240000FFF7F0FC786800F0B3FA0346FB757B68D1
:102410009B6A03F01003002B40F09980FB7D002B9A
:1024200040F095807B689B6A23F4885323F0020375
:1024300043F002027B689A627B685A687B68DB69BA
:102440001A437B681B7B5B001343BA681343BB6072
:102450007B689B68B3F5807F03D07B689B68012B0A
:1024600002D14FF4807300E000233A6913433B61CB
:102470007B681B7D012B19D17B681B7B002B09D14D
:102480007B689B69013B5A033B69134343F4006338
:102490003B610BE07B689B6A43F020027B689A6299
:1024A0007B68DB6A43F001027B68DA627B681B6849
:1024B0005B6823F469417B681B683A690A435A6088
:1024C0007B681B689A68284B13407A681268B96861
:1024D0000B4393607B689B68B3F5807F03D07B6878
:1024E0009B68012B04D17B681B69013B1B05FB60CA
:1024F0007B681B68DB6A23F470017B681B68FA68E1
:102500000A43DA627B681B689A68184B1340BA6802
:102510009A420BD17B680022DA627B689B6A23F0C7
:10252000030343F001027B689A6218E07B689B6AB0
:1025300023F0120343F010027B689A627B68DB6A27
:1025400043F001027B68DA620123FB7507E07B68D8
:102550009B6A43F010027B689A620123FB75FB7D46
:1025600018461837BD4680BDFDF7E1FFFE0E1FFF80
:1025700080B584B000AF78600023FB737B6893F86C
:102580002430012B01D1022398E07B68012283F8DB
:102590002420786800F092F90346FB73FB7B002B44
:1025A00040F087807B689B6A23F4407323F001032B
:1025B00043F480727B689A627B681B68414A93424D
:1025C00005D1414B5B6803F47023002B15D17B6868
:1025D0009B6A23F480127B689A627B681B685B6845
:1025E00003F48063002B26D07B689B6A23F440535E
:1025F00043F480527B689A621DE07B689B6A43F4D7
:1026000080127B689A627B681B682F4A934204D0D1
:102610007B681B682B4A93420DD12B4B5B6803F4FC
:102620008063002B07D07B689B6A23F4405343F4FC
:1026300080527B689A627B689B6A03F48053002B0C
:1026400006D07B68DB6A23F006027B68DA6202E070
:102650007B680022DA627B68002283F824207B6892
:102660001B686FF002021A607B681B689B6803F4AA
:102670006023B3F5602F13D17B681B68114A934226
:1026800005D1114B5B6803F47023002B08D17B68E4
:102690001B689A687B681B6842F4A0029A600CE091
:1026A0007B681B689A687B681B6842F480129A609A
:1026B00003E07B68002283F82420FB7B1846103758
:1026C000BD4680BD002801400024014080B485B093
:1026D00000AF786039600023FB730023BB607B6828
:1026E00093F82430012B01D10223DCE07B68012226
:1026F00083F824203B685B68062B1CD87B681B682A
:10270000596B3B685A6813469B001344053B1F22D4
:1027100002FA03F3DB4319403B6818683B685A68C8
:1027200013469B001344053B00FA03F27B681B68C9
:102730000A435A633CE03B685B680C2B1CD87B68FF
:102740001B68196B3B685A6813469B001344233B74
:102750001F2202FA03F3DB4319403B6818683B6809
:102760005A6813469B001344233B00FA03F27B682C
:102770001B680A431A631BE07B681B68D96A3B68C5
:102780005A6813469B001344413B1F2202FA03F38D
:10279000DB4319403B6818683B685A6813469B0046
:1027A0001344413B00FA03F27B681B680A43DA6278
:1027B0003B681B68092B1CD97B681B68D9683B6880
:1027C0001A6813465B0013441E3B072202FA03F308
:1027D000DB4319403B6898683B681A6813465B0006
:1027E00013441E3B00FA03F27B681B680A43DA605D
:1027F00019E07B681B6819693B681A6813465B001F
:102800001344072202FA03F3DB4319403B6898683C
:102810003B681A6813465B00134400FA03F27B68B6
:102820001B680A431A613B681B68102B03D03B6886
:102830001B68112B32D17B681B681D4A934225D13E
:102840007B681B689B6803F40003002B26D17B6820
:102850001B689A687B681B6842F400029A603B68B8
:102860001B68102B1AD1134B1B68134AA2FB0323BE
:102870009A0C13469B0013445B00BB6002E0BB68EC
:10288000013BBB60BB68002BF9D107E07B689B6A0A
:1028900043F020027B689A620123FB737B6800226D
:1028A00083F82420FB7B18461437BD4680BC704754
:1028B000002401400800002083DE1B4380B584B063
:1028C00000AF78600023FB600023BB607B681B685F
:1028D0009B6803F00103012B40D07B681B689A685A
:1028E0007B681B6842F001029A601F4B1B681F4AFD
:1028F000A2FB03239B0CBB6002E0BB68013BBB60F7
:10290000BB68002BF9D1FFF72DFDF8601FE0FFF742
:1029100029FD0246FB68D31A022B18D97B681B6875
:102920009B6803F00103012B11D07B689B6A43F085
:1029300010027B689A627B68DB6A43F001027B6865
:10294000DA627B68002283F82420012307E07B6899
:102950001B689B6803F00103012BD8D100231846A4
:102960001037BD4680BD00BF0800002083DE1B433A
:1029700080B584B000AF78600023FB607B681B6883
:102980009B6803F00103012B2ED17B681B689A68BA
:102990007B681B6822F001029A60FFF7E3FCF86095
:1029A0001BE0FFF7DFFC0246FB68D31A022B14D9A9
:1029B0007B681B689B6803F00103012B0DD17B68CA
:1029C0009B6A43F010027B689A627B68DB6A43F083
:1029D00001027B68DA62012307E07B681B689B6861
:1029E00003F00103012BDCD0002318461037BD464D
:1029F00080BD000080B485B000AF78600023FB602C
:102A00007B681B68DB6CFB60084B9B6803F480737E
:102A1000002B05D1064BDB6C1B04FA681343FB60EB
:102A2000FB6818461437BD4680BC7047002401403F
:102A30000028014080B590B000AF78603960002375
:102A400087F83F3007F10C0330220021184603F0CD
:102A5000CAFE7B6893F82430012B01D1022332E0B7
:102A60007B68012283F82420194BFB607B681B687C
:102A70009B6803F00103012B16D0FB689B6803F0F1
:102A80000103012B10D07B681B68124A93420BD1C3
:102A90007B681B685B6823F470213B681A687B685D
:102AA0001B680A435A6008E07B689B6A43F0200277
:102AB0007B689A62012387F83F307B68002283F8A5
:102AC000242097F83F3018464037BD4680BD00BFF0
:102AD000002801400024014080B485B000AF786038
:102AE0007B6803F00703FB600C4BDB68BB60BA68D4
:102AF0004FF6FF031340BB60FB681A02BB68134329
:102B000043F0BF6343F40033BB60044ABB68D36047
:102B100000BF1437BD4680BC704700BF00ED00E029
:102B200080B400AF044BDB681B0A03F007031846B0
:102B3000BD4680BC704700BF00ED00E080B483B0AC
:102B400000AF0346FB7197F90730002B0BDBFB79D5
:102B500003F01F02064997F907305B09012000FACC
:102B600002F241F8232000BF0C37BD4680BC7047FD
:102B700000E100E080B483B000AF03463960FB7130
:102B800097F90730002B0ADB3B68DAB20C4997F95A
:102B900007301201D2B20B4483F800230AE03B68ED
:102BA000DAB20849FB7903F00F03043B1201D2B2F9
:102BB0000B441A7600BF0C37BD4680BC704700BF7F
:102BC00000E100E000ED00E080B489B000AFF86003
:102BD000B9607A60FB6803F00703FB61FB69C3F12E
:102BE0000703042B28BF0423BB61FB690433062BB6
:102BF00002D9FB69033B00E000237B614FF0FF3209
:102C0000BB6902FA03F3DA43BB681A407B699A4056
:102C10004FF0FF317B6901FA03F3D9437B680B4026
:102C2000134318462437BD4680BC704780B582B038
:102C300000AF78607B68013BB3F1807F01D3012353
:102C40000FE00A4A7B68013B53600F214FF0FF30D1
:102C5000FFF790FF054B00229A60044B07221A6091
:102C6000002318460837BD4680BD00BF10E000E0D5
:102C700080B582B000AF78607868FFF72DFF00BFA5
:102C80000837BD4680BD80B586B000AF0346B96049
:102C90007A60FB7300237B61FFF742FF78617A68FB
:102CA000B9687869FFF790FF024697F90F3011462F
:102CB0001846FFF75FFF00BF1837BD4680BD80B5DF
:102CC00082B000AF0346FB7197F907301846FFF753
:102CD00035FF00BF0837BD4680BD80B582B000AF6C
:102CE00078607868FFF7A2FF034618460837BD46AC
:102CF00080BD000080B584B000AF78600023FB7316
:102D00007B6893F82130DBB2022B05D07B6804226C
:102D10009A630123FB7351E07B681B681A687B6828
:102D20001B6822F00E021A607B681B681A687B68B9
:102D30001B6822F001021A607B681B68224A9342DA
:102D400029D07B681B68214A934222D07B681B688C
:102D50001F4A93421AD07B681B681E4A934212D0C6
:102D60007B681B681C4A93420AD07B681B681B4A1D
:102D7000934202D14FF480130EE04FF080730BE0CA
:102D80004FF4803308E04FF4805305E04FF4807334
:102D900002E0102300E00123114A53607B68012206
:102DA00083F821207B68002283F820207B685B6BFE
:102DB000002B03D07B685B6B78689847FB7B1846D9
:102DC0001037BD4680BD00BF080002401C00024015
:102DD0003000024044000240580002406C000240B3
:102DE0000000024080B48BB000AF786039600023EF
:102DF0007B6200233B6269E101227B6A02FA03F3F2
:102E0000FB613B681B68FA691340BB61BA69FB69E7
:102E10009A4240F058813B685B689A4A93425ED080
:102E2000984A934275D8984A934258D0964A93420A
:102E30006FD8964A934252D0944A934269D8944AA2
:102E400093424CD0924A934263D8924A934246D0DE
:102E5000904A93425DD8122B2AD8122B59D801A23E
:102E600052F823F0DF2E0008B92E0008CB2E000800
:102E70000D2F0008132F0008132F0008132F000830
:102E8000132F0008132F0008132F0008132F00081A
:102E9000132F0008132F0008132F0008132F00080A
:102EA000132F0008132F0008C12E0008D52E00088C
:102EB000794A934213D02CE03B68DB683B6229E0FF
:102EC0003B68DB6804333B6224E03B68DB68083323
:102ED0003B621FE03B68DB680C333B621AE03B68F7
:102EE0009B68002B02D104233B6213E03B689B6884
:102EF000012B05D108233B627B68FA691A6109E05E
:102F000008233B627B68FA695A6103E000233B6255
:102F100000E000BFBB69FF2B01D87B6801E07B6844
:102F200004337B61BB69FF2B02D87B6A9B0002E004
:102F30007B6A083B9B003B617B691A680F213B69F8
:102F400001FA03F3DB431A40396A3B6901FA03F3E0
:102F50001A437B691A603B685B6803F08053002B5F
:102F600000F0B1804D4B9B694C4A43F001039361E3
:102F70004A4B9B6903F00103BB60BB68484A7B6A0C
:102F80009B08023352F82330FB607B6A03F0030393
:102F90009B000F2202FA03F3DB43FA681340FB6045
:102FA0007B68404A934213D07B683F4A93420DD0DE
:102FB0007B683E4A934207D07B683D4A934201D1E9
:102FC000032306E0042304E0022302E0012300E0DF
:102FD00000237A6A02F0030292009340FA681343D6
:102FE000FB602F497B6A9B080233FA6841F8232073
:102FF0003B685B6803F48013002B06D02D4B9A6866
:103000002C49BB6913438B6006E02A4B9A68BB6965
:10301000DB43284913408B603B685B6803F4001373
:10302000002B06D0234BDA682249BB691343CB60DF
:1030300006E0204BDA68BB69DB431E491340CB60D6
:103040003B685B6803F40033002B06D0194B5A68C9
:103050001849BB6913434B6006E0164B5A68BB69BD
:10306000DB43144913404B603B685B6803F48033D7
:10307000002B21D00F4B1A680E49BB6913430B601C
:1030800021E000BF000032100000311000002210CB
:10309000000021100000121000001110001002406A
:1030A0000000014000080140000C014000100140F8
:1030B00000140140000401400B4B1A68BB69DB435C
:1030C000094913400B607B6A01337B623B681A68D5
:1030D0007B6A22FA03F3002B7FF48EAE00BF00BFA1
:1030E0002C37BD4680BC70470004014080B485B0D9
:1030F00000AF78600B467B807B689A687B881340C2
:10310000002B02D00123FB7301E00023FB73FB7B48
:1031100018461437BD4680BC704780B483B000AFFA
:1031200078600B467B8013467B707B78002B03D046
:103130007A887B681A6103E07B881A047B681A61CD
:1031400000BF0C37BD4680BC7047000080B584B01E
:1031500000AF78607B68002B01D101232BE17B68F5
:1031600093F83D30DBB2002B06D17B68002283F858
:103170003C207868FEF79CFE7B68242283F83D2083
:103180007B681B681A687B681B6822F001021A6062
:103190007B681B681A687B681B6842F400421A60EF
:1031A0007B681B681A687B681B6822F400421A60FF
:1031B00001F0CAFBF8607B685B68814A934207D8DC
:1031C000FB68804A934294BF01230023DBB206E0F0
:1031D000FB687D4A934294BF01230023DBB2002B9E
:1031E00001D00123E7E0FB68784AA2FB03239B0C94
:1031F000BB607B681B685B6823F03F017B681B68D2
:10320000BA680A435A607B681B681B6A23F03F0157
:103210007B685B686A4A934202D8BB68013309E065
:10322000BB684FF4967202FB03F3694AA2FB0323C7
:103230009B0901337A6812680B4313627B681B6831
:10324000DB6923F44F4222F0FF027B685B685C4934
:103250008B4219D8FB68591E7B685B685B00B1FB29
:10326000F3F3591C40F6FC730B40002B0AD0FB68AB
:10327000591E7B685B685B00B1FBF3F30133C3F35A
:103280000B0351E004234FE07B689B68002B11D1B6
:10329000FB68581E7B6859680B465B000B44B0FB0B
:1032A000F3F30133C3F30B03002B0CBF0123002303
:1032B000DBB212E0FB68581E7B6859680B469B0026
:1032C0000B4499000B44B0FBF3F30133C3F30B033E
:1032D000002B0CBF01230023DBB2002B01D0012304
:1032E00022E07B689B68002B0ED1FB68581E7B6830
:1032F00059680B465B000B44B0FBF3F30133C3F397
:103300000B0343F400430FE0FB68581E7B685968C9
:103310000B469B000B4499000B44B0FBF3F30133C5
:10332000C3F30B0343F44043796809681343CB614B
:103330007B681B681B6823F0C0017B68DA697B68C7
:103340001B6A1A437B681B680A431A607B681B6808
:103350009B6823F4034323F0FF037A6811697A68BA
:10336000D26811437A6812680B4393607B681B68CC
:10337000DB6823F0FF017B685A697B689B691A430D
:103380007B681B680A43DA607B681B681A687B6885
:103390001B6842F001021A607B6800221A647B6895
:1033A000202283F83D207B6800221A637B6800227C
:1033B00083F83E20002318461037BD4680BD00BF6D
:1033C000A08601007F841E00FF083D0083DE1B43B2
:1033D000D34D621080B588B002AFF8607A601A46AB
:1033E0000B467B8113463B81FEF7BCFF7861FB688F
:1033F00093F83D30DBB2202B40F0E0807B690093F6
:10340000192301227049F86800F09EFC0346002B46
:1034100001D00223D3E0FB6893F83C30012B01D1AB
:103420000223CCE0FB68012283F83C20FB681B6888
:103430001B6803F00103012B07D0FB681B681A68A7
:10344000FB681B6842F001021A60FB681B681A687F
:10345000FB681B6822F400621A60FB68212283F873
:103460003D20FB68102283F83E20FB6800221A648E
:10347000FB687A685A62FB683A895A85FB685B8DFB
:103480009AB2FB681A85FB68504ADA6279897B69CF
:103490003A6AF86800F008FB0346002B01D00123CC
:1034A0008DE000233B61FB681B685B693B61FB6847
:1034B0001B689B693B613B6966E07A69396AF86819
:1034C00000F05CFD0346002B0DD0FB681B6C042B49
:1034D00007D1FB681B681A68FB681B6842F400721E
:1034E0001A6001236BE0FB685B6A1A78FB681B6853
:1034F0001A61FB685B6A5A1CFB685A62FB685B8D49
:103500009BB2013B9AB2FB685A85FB681B8D013B5D
:103510009AB2FB681A85FB681B685B6903F00403B9
:10352000042B1BD1FB681B8D002B17D0FB685B6A3B
:103530001A78FB681B681A61FB685B6A5A1CFB6897
:103540005A62FB685B8D9BB2013B9AB2FB685A855D
:10355000FB681B8D013B9AB2FB681A857A69396A50
:10356000F86800F053FD0346002B0DD0FB681B6C80
:10357000042B07D1FB681B681A68FB681B6842F4C0
:1035800000721A6001231AE0FB681B8D002B94D196
:10359000FB681B681A68FB681B6842F400721A60BB
:1035A000FB68202283F83D20FB68002283F83E2040
:1035B000FB68002283F83C20002300E00223184629
:1035C0001837BD4680BD00BF020010000000FFFF9D
:1035D00080B58CB002AFF8607A601A460B467B81EA
:1035E00013463B8100233B62FEF7BCFE7862FB681A
:1035F00093F83D30DBB2202B40F04B827B6A009386
:10360000192301227F49F86800F09EFB0346002B36
:1036100001D002233EE2FB6893F83C30012B01D13C
:10362000022337E2FB68012283F83C20FB681B6819
:103630001B6803F00103012B07D0FB681B681A68A5
:10364000FB681B6842F001021A60FB681B681A687D
:10365000FB681B6822F400621A60FB68222283F870
:103660003D20FB68102283F83E20FB6800221A648C
:10367000FB687A685A62FB683A895A85FB685B8DF9
:103680009AB2FB681A85FB685F4ADA6279897B6ABD
:103690003A6BF86800F08AFA0346002B01D0012348
:1036A000F8E1FB681B8D002B13D10023FB61FB6845
:1036B0001B685B69FB61FB681B689B69FB61FB69BD
:1036C000FB681B681A68FB681B6842F400721A608A
:1036D000CCE1FB681B8D012B1ED1FB681B681A68AF
:1036E000FB681B6822F480621A6072B600BF002378
:1036F000BB61FB681B685B69BB61FB681B689B69FE
:10370000BB61BB69FB681B681A68FB681B6842F4F5
:1037100000721A6062B635E0FB681B8D022B1ED169
:10372000FB681B681A68FB681B6842F400621A6039
:1037300072B600BF00237B61FB681B685B697B611D
:10374000FB681B689B697B617B69FB681B681A6867
:10375000FB681B6822F480621A6062B612E0FB68A4
:103760001B681A68FB681B6842F480621A600023B9
:103770003B61FB681B685B693B61FB681B689B697D
:103780003B613B6972E1FB681B8D032B00F21F81DB
:10379000FB681B8D012B23D17A6A396BF86800F026
:1037A0007DFC0346002B01D0012373E1FB681B68FD
:1037B0001A69FB685B6AD2B21A70FB685B6A5A1CB2
:1037C000FB685A62FB681B8D013B9AB2FB681A8545
:1037D000FB685B8D9BB2013B9AB2FB685A8545E161
:1037E000FB681B8D022B52D17B6A00933B6B00223E
:1037F0000649F86800F0A8FA0346002B08D0012318
:1038000048E100BF020010000000FFFF04000100BB
:1038100072B600BFFB681B681A68FB681B6842F43D
:1038200000721A60FB681B681A69FB685B6AD2B297
:103830001A70FB685B6A5A1CFB685A62FB681B8D36
:10384000013B9AB2FB681A85FB685B8D9BB2013B1A
:103850009AB2FB685A8562B600BFFB681B681A699A
:10386000FB685B6AD2B21A70FB685B6A5A1CFB6821
:103870005A62FB681B8D013B9AB2FB681A85FB6894
:103880005B8D9BB2013B9AB2FB685A85EEE07B6A86
:1038900000933B6B00228149F86800F055FA03461B
:1038A000002B01D00123F5E0FB681B681A68FB6858
:1038B0001B6822F480621A6072B600BFFB681B6846
:1038C0001A69FB685B6AD2B21A70FB685B6A5A1CA1
:1038D000FB685A62FB681B8D013B9AB2FB681A8534
:1038E000FB685B8D9BB2013B9AB2FB685A856C4BBF
:1038F0001B68DB086B4AA2FB03231A0A13469B00D2
:103900001344DA00D31A3B623B6A013B3B623B6AD9
:10391000002B18D1FB6800221A63FB68202283F871
:103920003D20FB68002283F83E20FB681B6C43F0BF
:103930002002FB681A6462B600BFFB68002283F8AD
:103940003C200123A6E0FB681B685B6903F00403CD
:10395000042BD9D1FB681B681A68FB681B6842F40A
:1039600000721A60FB681B681A69FB685B6AD2B256
:103970001A70FB685B6A5A1CFB685A62FB681B8DF5
:10398000013B9AB2FB681A85FB685B8D9BB2013BD9
:103990009AB2FB685A8562B600BFFB681B681A6959
:1039A000FB685B6AD2B21A70FB685B6A5A1CFB68E0
:1039B0005A62FB681B8D013B9AB2FB681A85FB6853
:1039C0005B8D9BB2013B9AB2FB685A854EE07A6AE6
:1039D000396BF86800F062FB0346002B01D001232D
:1039E00058E0FB681B681A69FB685B6AD2B21A7000
:1039F000FB685B6A5A1CFB685A62FB681B8D013BC3
:103A00009AB2FB681A85FB685B8D9BB2013B9AB248
:103A1000FB685A85FB681B685B6903F00403042B91
:103A200024D1FB681B8D032B07D1FB681B681A6828
:103A3000FB681B6822F480621A60FB681B681A69C5
:103A4000FB685B6AD2B21A70FB685B6A5A1CFB683F
:103A50005A62FB681B8D013B9AB2FB681A85FB68B2
:103A60005B8D9BB2013B9AB2FB685A85FB681B8D4C
:103A7000002B7FF488AEFB68202283F83D20FB6892
:103A8000002283F83E20FB68002283F83C200023BC
:103A900000E0022318462837BD4680BD040001001F
:103AA0000800002089B5F81480B588B002AFF8602E
:103AB0007A603B600B467B81FB68DB6A7B617B69DC
:103AC000082B06D07B69012B03D07B6913F5803F5F
:103AD00008D1FB681B681A68FB681B6842F4807297
:103AE0001A600BE0FB681B6B122B07D1FB681B688D
:103AF0001A68FB681B6842F480721A603B68009386
:103B00007B6800224FF00111F86800F01DF90346B0
:103B1000002B0DD0FB681B681B6803F48073B3F5A2
:103B2000807F03D1FB684FF400721A64032335E0F1
:103B3000FB681B69B3F5804F08D17B89DBB21A465D
:103B4000FB681B6802F0FE021A611BE07B89DB1137
:103B5000DBB203F00603DBB263F00F03DAB2FB68FB
:103B60001B681A613B687A680E49F86800F066F9CC
:103B70000346002B01D0012310E07B89DAB2FB68F9
:103B80001B681A613B687A680749F86800F056F9C3
:103B90000346002B01D0012300E00023184618370C
:103BA000BD4680BD080001000200010080B588B05C
:103BB00002AFF8607A603B600B467B81FB68DB6A92
:103BC0007B61FB681B681A68FB681B6842F48062B3
:103BD0001A607B69082B06D07B69012B03D07B69B7
:103BE00013F5803F08D1FB681B681A68FB681B68E7
:103BF00042F480721A600BE0FB681B6B112B07D13B
:103C0000FB681B681A68FB681B6842F480721A60C4
:103C10003B6800937B6800224FF00111F86800F0C8
:103C200093F80346002B0DD0FB681B681B6803F458
:103C30008073B3F5807F03D1FB684FF400721A6480
:103C4000032379E0FB681B69B3F5804F08D17B89BA
:103C5000DBB243F00103DAB2FB681B681A615FE074
:103C60007B89DB11DBB203F00603DBB263F00F03E9
:103C7000DAB2FB681B681A613B687A683049F868F9
:103C800000F0DCF80346002B01D0012354E07B89CF
:103C9000DAB2FB681B681A613B687A682949F868E0
:103CA00000F0CCF80346002B01D0012344E00023B0
:103CB0003B61FB681B685B693B61FB681B689B6938
:103CC0003B613B69FB681B681A68FB681B6842F430
:103CD00080721A603B6800937B6800224FF00111EC
:103CE000F86800F031F80346002B0DD0FB681B6824
:103CF0001B6803F48073B3F5807F03D1FB684FF436
:103D000000721A64032317E07B89DB11DBB203F036
:103D10000603DBB263F00E03DAB2FB681B681A61BC
:103D20003B687A680749F86800F088F80346002B7A
:103D300001D0012300E0002318461837BD4680BD9E
:103D4000080001000200010080B584B000AFF860F7
:103D5000B9603B601346FB7148E03B68B3F1FF3F3D
:103D600044D0FEF7FFFA0246BB69D31A3A689A427A
:103D700002D33B68002B39D1BB681B0CDBB2012B93
:103D80000DD1FB681B685B69DA43BB6813409BB2CB
:103D9000002B0CBF01230023DBB21A460CE0FB68AA
:103DA0001B689B69DA43BB6813409BB2002B0CBFB6
:103DB00001230023DBB21A46FB799A4216D1FB6835
:103DC00000221A63FB68202283F83D20FB68002252
:103DD00083F83E20FB681B6C43F02002FB681A64EA
:103DE000FB68002283F83C20012323E0BB681B0C06
:103DF000DBB2012B0DD1FB681B685B69DA43BB6842
:103E000013409BB2002B0CBF01230023DBB21A46E8
:103E10000CE0FB681B689B69DA43BB6813409BB2EC
:103E2000002B0CBF01230023DBB21A46FB799A4218
:103E300093D0002318461037BD4680BD80B584B0AE
:103E400000AFF860B9607A603B6071E0FB681B68A6
:103E50005B6903F48063B3F5806F23D1FB681B6853
:103E60001A68FB681B6842F400721A60FB681B68E2
:103E70006FF480625A61FB6800221A63FB6820229B
:103E800083F83D20FB68002283F83E20FB681B6C12
:103E900043F00402FB681A64FB68002283F83C20AC
:103EA000012367E07B68B3F1FF3F41D0FEF75AFA88
:103EB00002463B68D31A7A689A4202D37B68002B89
:103EC00036D1BB681B0CDBB2012B0CD1FB681B6825
:103ED0005B69DA43BB6813409BB2002B14BF01231C
:103EE0000023DBB20BE0FB681B689B69DA43BB680D
:103EF00013409BB2002B14BF01230023DBB2002B25
:103F000016D0FB6800221A63FB68202283F83D204C
:103F1000FB68002283F83E20FB681B6C43F0200204
:103F2000FB681A64FB68002283F83C20012321E02F
:103F3000BB681B0CDBB2012B0CD1FB681B685B69F7
:103F4000DA43BB6813409BB2002B14BF012300234C
:103F5000DBB20BE0FB681B689B69DA43BB6813406C
:103F60009BB2002B14BF01230023DBB2002B7FF494
:103F70006DAF002318461037BD4680BD80B584B0B4
:103F800000AFF860B9607A6034E0F86800F0E3F8F8
:103F90000346002B01D0012334E0BB68B3F1FF3F9F
:103FA00028D0FEF7DFF902467B68D31ABA689A4236
:103FB00002D3BB68002B1DD1FB681B685B6903F053
:103FC0008003802B16D0FB6800221A63FB68202236
:103FD00083F83D20FB68002283F83E20FB681B6CC1
:103FE00043F02002FB681A64FB68002283F83C203F
:103FF000012307E0FB681B685B6903F08003802BEB
:10400000C3D1002318461037BD4680BD80B584B0AB
:1040100000AFF860B9607A6034E0F86800F09BF8AF
:104020000346002B01D0012334E0BB68B3F1FF3F0E
:1040300028D0FEF797F902467B68D31ABA689A42ED
:1040400002D3BB68002B1DD1FB681B685B6903F0C2
:104050000403042B16D0FB6800221A63FB6820229D
:1040600083F83D20FB68002283F83E20FB681B6C30
:1040700043F02002FB681A64FB68002283F83C20AE
:10408000012307E0FB681B685B6903F00403042B52
:10409000C3D1002318461037BD4680BD80B584B01B
:1040A00000AFF860B9607A6049E0FB681B685B6943
:1040B00003F01003102B19D1FB681B686FF010027E
:1040C0005A61FB6800221A63FB68202283F83D20B6
:1040D000FB68002283F83E20FB681A6CFB681A64B8
:1040E000FB68002283F83C20012330E0FEF73AF918
:1040F00002467B68D31ABA689A4202D3BB68002B87
:104100001DD1FB681B685B6903F04003402B16D090
:10411000FB6800221A63FB68202283F83D20FB68BD
:10412000002283F83E20FB681B6C43F02002FB68F2
:104130001A64FB68002283F83C20012307E0FB6837
:104140001B685B6903F04003402BAED10023184687
:104150001037BD4680BD80B483B000AF78607B6807
:104160001B685B6903F48063B3F5806F1BD17B68C8
:104170001B686FF480625A617B6800221A637B6857
:10418000202283F83D207B68002283F83E207B6854
:104190001B6C43F004027B681A647B68002283F87E
:1041A0003C20012300E0002318460C37BD4680BCAC
:1041B0007047000080B586B000AF78607B68002B48
:1041C00001D1012372E27B681B6803F00103002B1D
:1041D00000F08780924B5B6803F00C03042B0CD03B
:1041E0008F4B5B6803F00C03082B12D18C4B5B6880
:1041F00003F48033B3F5803F0BD1894B1B6803F484
:104200000033002B6CD07B685B68002B68D10123E6
:104210004CE27B685B68B3F5803F06D1804B1B683E
:104220007F4A43F4803313602EE07B685B68002B89
:104230000CD17B4B1B687A4A23F480331360784B94
:104240001B68774A23F4802313601DE07B685B685A
:10425000B3F5A02F0CD1724B1B68714A43F4802335
:1042600013606F4B1B686E4A43F4803313600BE09E
:104270006B4B1B686A4A23F480331360684B1B68DE
:10428000674A23F4802313607B685B68002B13D09C
:10429000FEF768F8386108E0FEF764F802463B690B
:1042A000D31A642B01D9032300E25D4B1B6803F48E
:1042B0000033002BF0D014E0FEF754F8386108E02A
:1042C000FEF750F802463B69D31A642B01D9032349
:1042D000ECE1534B1B6803F40033002BF0D100E0FA
:1042E00000BF7B681B6803F00203002B63D04C4BBC
:1042F0005B6803F00C03002B0BD0494B5B6803F0A9
:104300000C03082B1CD1464B5B6803F48033002B55
:1043100016D1434B1B6803F00203002B05D07B68CA
:104320001B69012B01D00123C0E13D4B1B6823F029
:10433000F8027B685B69DB00394913430B603AE0A4
:104340007B681B69002B20D0364B01221A60FEF7D8
:1043500009F8386108E0FEF705F802463B69D31A10
:10436000022B01D90323A1E12D4B1B6803F00203AB
:10437000002BF0D02A4B1B6823F0F8027B685B69A6
:10438000DB00274913430B6015E0264B00221A601F
:10439000FDF7E8FF386108E0FDF7E4FF02463B69FE
:1043A000D31A022B01D9032380E11D4B1B6803F0B4
:1043B0000203002BF0D17B681B6803F00803002B7D
:1043C0003AD07B689B69002B19D0174B01221A60E9
:1043D000FDF7C8FF386108E0FDF7C4FF02463B69FE
:1043E000D31A022B01D9032360E10D4B5B6A03F062
:1043F0000203002BF0D0012000F0CEFA1CE00A4BA3
:1044000000221A60FDF7AEFF38610FE0FDF7AAFF4A
:1044100002463B69D31A022B08D9032346E100BFA9
:10442000001002400000424280044242924B5B6A0C
:1044300003F00203002BE9D17B681B6803F004033F
:10444000002B00F0A6800023FB758B4BDB6903F08B
:104450008053002B0DD1884BDB69874A43F0805392
:10446000D361854BDB6903F08053BB60BB680123DC
:10447000FB75824B1B6803F48073002B18D17F4BB4
:104480001B687E4A43F480731360FDF76BFF38614D
:1044900008E0FDF767FF02463B69D31A642B01D998
:1044A000032303E1754B1B6803F48073002BF0D0EA
:1044B0007B68DB68012B06D16F4B1B6A6E4A43F0A9
:1044C000010313622DE07B68DB68002B0CD16A4B83
:1044D0001B6A694A23F001031362674B1B6A664A31
:1044E00023F0040313621CE07B68DB68052B0CD10E
:1044F000614B1B6A604A43F0040313625E4B1B6A04
:104500005D4A43F0010313620BE05B4B1B6A5A4A9E
:1045100023F001031362584B1B6A574A23F004032C
:1045200013627B68DB68002B15D0FDF71BFF386139
:104530000AE0FDF717FF02463B69D31A41F28832C1
:10454000934201D90323B1E04B4B1B6A03F00203F2
:10455000002BEED014E0FDF705FF38610AE0FDF70F
:1045600001FF02463B69D31A41F28832934201D9D6
:1045700003239BE0404B1B6A03F00203002BEED1A8
:10458000FB7D012B05D13C4BDB693B4A23F080537B
:10459000D3617B68DB69002B00F08780364B5B685A
:1045A00003F00C03082B61D07B68DB69022B46D13A
:1045B000334B00221A60FDF7D5FE386108E0FDF7A5
:1045C000D1FE02463B69D31A022B01D903236DE0C9
:1045D000294B1B6803F00073002BF0D17B681B6A2A
:1045E000B3F5803F08D1244B5B6823F400327B682D
:1045F0009B68214913434B601F4B5B6823F4741283
:104600007B68196A7B685B6A0B431B4913434B60E9
:104610001B4B01221A60FDF7A5FE386108E0FDF78B
:10462000A1FE02463B69D31A022B01D903233DE0C8
:10463000114B1B6803F00073002BF0D035E0104BDA
:1046400000221A60FDF78EFE386108E0FDF78AFE51
:1046500002463B69D31A022B01D9032326E0064BFD
:104660001B6803F00073002BF0D11EE07B68DB6950
:10467000012B07D1012319E0001002400070004017
:10468000600042420B4B5B68FB60FB6803F48032C6
:104690007B681B6A9A4206D1FB6803F470127B6840
:1046A0005B6A9A4201D0012300E0002318461837C4
:1046B000BD4680BD0010024080B584B000AF786078
:1046C00039607B68002B01D10123D0E06A4B1B6865
:1046D00003F007033A689A4210D9674B1B6823F02E
:1046E000070265493B6813430B60634B1B6803F08B
:1046F00007033A689A4201D00123B8E07B681B683F
:1047000003F00203002B20D07B681B6803F0040336
:10471000002B05D0594B5B68584A43F4E063536063
:104720007B681B6803F00803002B05D0534B5B68C4
:10473000524A43F460535360504B5B6823F0F002DD
:104740007B689B684D4913434B607B681B6803F093
:104750000103002B40D07B685B68012B07D1474BDE
:104760001B6803F40033002B15D101237FE07B6825
:104770005B68022B07D1414B1B6803F00073002BD1
:1047800009D1012373E03D4B1B6803F00203002BAA
:1047900001D101236BE0394B5B6823F003027B6896
:1047A0005B68364913434B60FDF7DCFDF8600AE0B7
:1047B000FDF7D8FD0246FB68D31A41F288329342D6
:1047C00001D9032353E02D4B5B6803F00C027B6897
:1047D0005B689B009A42EBD1274B1B6803F00703F1
:1047E0003A689A4210D2244B1B6823F007022249F0
:1047F0003B6813430B60204B1B6803F007033A68C8
:104800009A4201D0012332E07B681B6803F0040365
:10481000002B08D0194B5B6823F4E0627B68DB68EF
:10482000164913434B607B681B6803F00803002B99
:1048300009D0124B5B6823F460527B681B69DB0074
:104840000E4913434B6000F021F802460B4B5B68A6
:104850001B0903F00F030A49CB5C22FA03F3094A50
:104860001360094B1B681846FDF73AFD00231846F4
:104870001037BD4680BD00BF00200240001002403E
:10488000D4890008080000200C00002080B487B004
:1048900000AF0023FB600023BB6000237B6100238B
:1048A0007B6000233B611E4B5B68FB60FB6803F091
:1048B0000C03042B02D0082B03D027E0194B3B61DB
:1048C00027E0FB689B0C03F00F03174AD35C7B6067
:1048D000FB6803F48033002B10D0114B5B685B0C3A
:1048E00003F00103114AD35CBB607B680D4A03FBF4
:1048F00002F2BB68B2FBF3F37B6104E07B680C4A15
:1049000002FB03F37B617B693B6102E0054B3B618A
:1049100000BF3B6918461C37BD4680BC704700BFCE
:104920000010024000127A00EC890008FC8900089F
:1049300000093D0080B400AF024B1B681846BD461D
:1049400080BC70470800002080B500AFFFF7F2FF81
:104950000246054B5B681B0A03F007030349CB5C67
:1049600022FA03F3184680BD00100240E4890008D3
:1049700080B500AFFFF7DEFF0246054B5B68DB0A40
:1049800003F007030349CB5C22FA03F3184680BD0A
:1049900000100240E489000880B485B000AF786060
:1049A0000A4B1B680A4AA2FB03235B0A7A6802FBD4
:1049B00003F3FB6000BFFB685A1EFA60002BF9D1BD
:1049C00000BF00BF1437BD4680BC70470800002000
:1049D000D34D621080B586B000AF786000233B6194
:1049E0000023FB607B681B6803F00103002B7DD074
:1049F0000023FB754F4BDB6903F08053002B0DD177
:104A00004C4BDB694B4A43F08053D361494BDB6924
:104A100003F08053BB60BB680123FB75464B1B68EA
:104A200003F48073002B18D1434B1B68424A43F4B4
:104A300080731360FDF796FC386108E0FDF792FC87
:104A400002463B69D31A642B01D903236DE03A4B2C
:104A50001B6803F48073002BF0D0364B1B6A03F401
:104A60004073FB60FB68002B2ED07B685B6803F40F
:104A70004073FA689A4227D02E4B1B6A23F4407386
:104A8000FB602E4B01221A602C4B00221A60294A2F
:104A9000FB681362FB6803F00103002B14D0FDF7E1
:104AA00061FC38610AE0FDF75DFC02463B69D31A00
:104AB00041F28832934201D9032336E01D4B1B6A31
:104AC00003F00203002BEED01A4B1B6A23F4407252
:104AD0007B685B68174913430B62FB7D012B05D193
:104AE000144BDB69134A23F08053D3617B681B6846
:104AF00003F00203002B08D00E4B5B6823F4404206
:104B00007B689B680B4913434B607B681B6803F011
:104B10001003002B08D0074B5B6823F480027B68EE
:104B2000DB68044913434B60002318461837BD4621
:104B300080BD00BF001002400070004040044242AF
:104B400080B582B000AF78607B68002B01D1012373
:104B500076E07B685B6A002B08D17B685B68B3F505
:104B6000827F09D07B680022DA6105E07B68002241
:104B70001A617B6800225A617B6800229A627B6816
:104B800093F85130DBB2002B06D17B68002283F80A
:104B900050207868FDF7CAF97B68022283F851201B
:104BA0007B681B681A687B681B6822F040021A60E9
:104BB0007B685B6803F482727B689B6803F4044340
:104BC0001A437B68DB6803F400631A437B681B6944
:104BD00003F002031A437B685B6903F001031A4385
:104BE0007B689B6903F400731A437B68DB6903F0FD
:104BF00038031A437B681B6A03F0800342EA03010F
:104C00007B689B6A03F400527B681B680A431A6046
:104C10007B689B691A0C7B681B6802F004025A606F
:104C20007B681B68DA697B681B6822F40062DA61C2
:104C30007B6800225A657B68012283F8512000239B
:104C400018460837BD4680BD80B588B000AFF86013
:104C5000B9603B601346FB80FDF784FBF861FB887D
:104C60007B83FB6893F85130DBB2012B01D0022328
:104C70002AE1BB68002B02D0FB88002B01D1012365
:104C800022E1FB6893F85030012B01D102231BE194
:104C9000FB68012283F85020FB68032283F851202F
:104CA000FB6800225A65FB68BA681A63FB68FA88D9
:104CB0009A86FB68FA88DA86FB6800229A63FB68AA
:104CC00000229A87FB680022DA87FB6800225A6478
:104CD000FB6800221A64FB689B68B3F5004F0FD194
:104CE000FB681B681A68FB681B6822F040021A60A8
:104CF000FB681B681A68FB681B6842F480421A60F4
:104D0000FB681B681B6803F04003402B07D0FB685F
:104D10001B681A68FB681B6842F040021A60FB6857
:104D2000DB68B3F5006F52D1FB685B68002B02D0E3
:104D30007B8B012B45D1FB681B6B1A88FB681B68BA
:104D4000DA60FB681B6B9A1CFB681A63FB68DB8EDE
:104D50009BB2013B9AB2FB68DA8632E0FB681B68C3
:104D60009B6803F00203022B12D1FB681B6B1A88AD
:104D7000FB681B68DA60FB681B6B9A1CFB681A6394
:104D8000FB68DB8E9BB2013B9AB2FB68DA8618E0C7
:104D9000FDF7E8FA0246FB69D31A3A689A4203D84B
:104DA0003B68B3F1FF3F02D13B68002B09D1FB68A0
:104DB000012283F85120FB68002283F8502003234E
:104DC00082E0FB68DB8E9BB2002BC7D153E0FB680F
:104DD0005B68002B02D07B8B012B47D1FB681A6BE1
:104DE000FB681B680C3312781A70FB681B6B5A1C2B
:104DF000FB681A63FB68DB8E9BB2013B9AB2FB68CF
:104E0000DA8633E0FB681B689B6803F00203022B21
:104E100013D1FB681A6BFB681B680C3312781A708D
:104E2000FB681B6B5A1CFB681A63FB68DB8E9BB22A
:104E3000013B9AB2FB68DA8618E0FDF793FA024666
:104E4000FB69D31A3A689A4203D83B68B3F1FF3F33
:104E500002D13B68002B09D1FB68012283F8512065
:104E6000FB68002283F8502003232DE0FB68DB8ED3
:104E70009BB2002BC6D1FA693968F86800F0C8FC0B
:104E80000346002B02D0FB6820225A65FB689B6812
:104E9000002B0AD100237B61FB681B68DB687B6108
:104EA000FB681B689B687B617B69FB68012283F858
:104EB0005120FB68002283F85020FB685B6D002BBB
:104EC00001D0012300E0002318462037BD4680BDF5
:104ED00080B588B002AFF860B9603B601346FB80D4
:104EE000FB6893F85130DBB2012B01D0022304E1BF
:104EF000FB685B68B3F5827F12D1FB689B68002B6F
:104F00000ED1FB68042283F85120FA883B68009395
:104F10001346BA68B968F86800F0F3F80346ECE0A5
:104F2000FDF720FA7861BB68002B02D0FB88002BCC
:104F300001D10123E1E0FB6893F85030012B01D14E
:104F40000223DAE0FB68012283F85020FB68042288
:104F500083F85120FB6800225A65FB68BA689A639F
:104F6000FB68FA889A87FB68FA88DA87FB68002270
:104F70001A63FB6800229A86FB680022DA86FB68C7
:104F800000221A64FB6800225A64FB689B68B3F530
:104F9000004F0FD1FB681B681A68FB681B6822F082
:104FA00040021A60FB681B681A68FB681B6822F4E1
:104FB00080421A60FB681B681B6803F04003402BAB
:104FC00007D0FB681B681A68FB681B6842F0400248
:104FD0001A60FB68DB68002B70D135E0FB681B684A
:104FE0009B6803F00103012B15D1FB681B6803F1DB
:104FF0000C02FB689B6B1278D2B21A70FB689B6B39
:105000005A1CFB689A63FB68DB8F9BB2013B9AB228
:10501000FB68DA8718E0FDF7A5F902467B69D31A29
:105020003A689A4203D83B68B3F1FF3F02D13B682C
:10503000002B09D1FB68012283F85120FB68002274
:1050400083F85020032358E0FB68DB8F9BB2002BD2
:10505000C4D138E0FB681B689B6803F00103012B97
:1050600013D1FB681B68DA68FB689B6B92B21A80ED
:10507000FB689B6B9A1CFB689A63FB68DB8F9BB297
:10508000013B9AB2FB68DA8718E0FDF76BF902463C
:105090007B69D31A3A689A4203D83B68B3F1FF3F61
:1050A00002D13B68002B09D1FB68012283F8512013
:1050B000FB68002283F8502003231EE0FB68DB8F8F
:1050C0009BB2002BC6D17A693968F86800F04EFBB4
:1050D0000346002B02D0FB6820225A65FB680122A0
:1050E00083F85120FB68002283F85020FB685B6D39
:1050F000002B01D0012300E0002318461837BD46DD
:1051000080BD80B58AB000AFF860B9607A607B80FE
:1051100001237B62FDF726F93862FB6893F8513072
:10512000FB77FB685B68BB617B88FB82FB7F012BA5
:105130000CD0BB69B3F5827F06D1FB689B68002B5E
:1051400002D1FB7F042B01D002237FE1BB68002B3F
:1051500005D07B68002B02D07B88002B01D1012376
:1051600074E1FB6893F85030012B01D102236DE10B
:10517000FB68012283F85020FB6893F85130DBB2C2
:10518000042B03D0FB68052283F85120FB68002222
:105190005A65FB687A689A63FB687A88DA87FB68E5
:1051A0007A889A87FB68BA681A63FB687A88DA8615
:1051B000FB687A889A86FB6800221A64FB680022E2
:1051C0005A64FB681B681B6803F04003402B07D040
:1051D000FB681B681A68FB681B6842F040021A6093
:1051E000FB68DB68B3F5006F7ED1FB685B68002B62
:1051F00002D0FB8A012B6CD1FB681B6B1A88FB6801
:105200001B68DA60FB681B6B9A1CFB681A63FB68FF
:10521000DB8E9BB2013B9AB2FB68DA8659E0FB68F1
:105220001B689B6803F00203022B1BD1FB68DB8E1B
:105230009BB2002B16D07B6A012B13D1FB681B6B32
:105240001A88FB681B68DA60FB681B6B9A1CFB689A
:105250001A63FB68DB8E9BB2013B9AB2FB68DA866D
:1052600000237B62FB681B689B6803F00103012B32
:1052700019D1FB68DB8F9BB2002B14D0FB681B6835
:10528000DA68FB689B6B92B21A80FB689B6B9A1C76
:10529000FB689A63FB68DB8F9BB2013B9AB2FB68A9
:1052A000DA8701237B62FDF75DF802463B6AD31A79
:1052B0003A6B9A420DD83B6BB3F1FF3F09D0FB68C4
:1052C000012283F85120FB68002283F85020032339
:1052D000BCE0FB68DB8E9BB2002BA0D1FB68DB8FB0
:1052E0009BB2002B9BD182E0FB685B68002B02D055
:1052F000FB8A012B71D1FB681A6BFB681B680C33AE
:1053000012781A70FB681B6B5A1CFB681A63FB68E7
:10531000DB8E9BB2013B9AB2FB68DA865DE0FB68EC
:105320001B689B6803F00203022B1CD1FB68DB8E19
:105330009BB2002B17D07B6A012B14D1FB681A6B30
:10534000FB681B680C3312781A70FB681B6B5A1CC5
:10535000FB681A63FB68DB8E9BB2013B9AB2FB6869
:10536000DA8600237B62FB681B689B6803F00103FD
:10537000012B19D1FB68DB8F9BB2002B14D0FB688B
:105380001B68DA68FB689B6BD2B21A70FB689B6B78
:105390005A1CFB689A63FB68DB8F9BB2013B9AB295
:1053A000FB68DA8701237B62FCF7DCFF02463B6A7D
:1053B000D31A3A6B9A4203D83B6BB3F1FF3F02D149
:1053C0003B6B002B09D1FB68012283F85120FB685D
:1053D000002283F85020032338E0FB68DB8E9BB269
:1053E000002B9CD1FB68DB8F9BB2002B97D13A6AD4
:1053F000396BF86800F00CFA0346002B08D0FB6804
:1054000020225A65FB68002283F8502001231DE00A
:10541000FB689B68002B0AD100233B61FB681B687B
:10542000DB683B61FB681B689B683B613B69FB6811
:10543000012283F85120FB68002283F85020FB688A
:105440005B6D002B01D0012300E0002318462837B4
:10545000BD4680BD80B588B000AF78607B681B68B2
:105460005B68FB617B681B689B68BB61BB699B09D0
:1054700003F00103002B0FD1BB6903F00103002BE4
:105480000AD0FB699B0903F00103002B04D07B6861
:105490001B6C78689847BEE0BB695B0803F00103AA
:1054A000002B0AD0FB69DB0903F00103002B04D0B9
:1054B0007B685B6C78689847ADE0BB695B0903F07B
:1054C0000103002B06D1BB699B0903F00103002BEC
:1054D00000F0A180FB695B0903F00103002B00F0E1
:1054E0009A80BB699B0903F00103002B23D07B68E2
:1054F00093F85130DBB2032B11D07B685B6D43F026
:1055000004027B685A6500237B617B681B68DB684B
:105510007B617B681B689B687B617B690BE0002378
:105520003B617B681B68DB683B617B681B689B6831
:105530003B613B696FE0BB695B0903F00103002B32
:1055400014D07B685B6D43F001027B685A650023D1
:10555000FB607B681B689B68FB607B681B681A6844
:105560007B681B6822F040021A60FB687B685B6DF9
:10557000002B4FD07B681B685A687B681B6822F041
:10558000E0025A607B68012283F85120FB6903F036
:105590000203002B04D1FB6903F00103002B34D07C
:1055A0007B681B685A687B681B6822F003025A609C
:1055B0007B68DB6C002B11D07B68DB6C174A5A636D
:1055C0007B68DB6C1846FDF795FB0346002B05D086
:1055D0007B685B6D43F040027B685A657B689B6C1F
:1055E000002B16D07B689B6C0C4A5A637B689B6CC3
:1055F0001846FDF77FFB0346002B0AD07B685B6DE6
:1056000043F040027B685A6503E0786800F008F8D0
:1056100000E000BF00BF2037BD4680BD3356000804
:1056200080B483B000AF786000BF0C37BD4680BC4B
:10563000704780B584B000AF78607B685B6AFB60C0
:10564000FB680022DA87FB680022DA86F868FFF739
:10565000E7FF00BF1037BD4680BD000080B588B0B1
:1056600000AFF860B9603B601346FB71FCF77AFE4F
:105670000246BB6A9B1A3A681344FB61FCF772FE50
:10568000B861394B1B685B011B0DFA6902FB03F320
:105690007B6154E03B68B3F1FF3F50D0FCF762FE02
:1056A0000246BB69D31AFA699A4202D9FB69002BF8
:1056B0003DD1FB681B685A68FB681B6822F0E0025A
:1056C0005A60FB685B68B3F5827F11D1FB689B6809
:1056D000B3F5004F04D0FB689B68B3F5806F07D12A
:1056E000FB681B681A68FB681B6822F040021A609E
:1056F000FB689B6AB3F5005F0FD1FB681B681A68F3
:10570000FB681B6822F400521A60FB681B681A6869
:10571000FB681B6842F400521A60FB68012283F8A0
:105720005120FB68002283F85020032317E07B6997
:10573000002B01D10023FB617B69013B7B61FB688E
:105740001B689A68BB681340BA689A420CBF012371
:105750000023DBB21A46FB799A429BD100231846FC
:105760002037BD4680BD00BF0800002080B586B050
:1057700002AFF860B9607A60FB685B68B3F5827F5E
:1057800011D1FB689B68B3F5004F04D0FB689B68A0
:10579000B3F5806F07D1FB681B681A68FB681B684C
:1057A00022F040021A60FB685B68B3F5827F17D174
:1057B000FB689B68B3F5806F12D17B680093BB6870
:1057C00000220121F868FFF749FF0346002B1AD099
:1057D000FB685B6D43F02002FB685A65032313E00E
:1057E0007B680093BB6800228021F868FFF736FFD2
:1057F0000346002B07D0FB685B6D43F02002FB687B
:105800005A65032300E0002318461037BD4680BDCB
:1058100080B586B002AFF860B9607A607B680093AB
:10582000BB6801220221F868FFF718FF0346002B2E
:1058300007D0FB685B6D43F02002FB685A650323C9
:1058400013E07B680093BB6800228021F868FFF7B3
:1058500005FF0346002B07D0FB685B6D43F0200279
:10586000FB685A65032300E0002318461037BD4645
:1058700080BD80B582B000AF78607B68002B01D11D
:10588000012342E07B6893F84130DBB2002B06D164
:105890007B68002283F840207868FCF79BFB7B68DC
:1058A000242283F841207B681B68DA687B681B68C8
:1058B00022F40052DA60786800F072F97B681B68A5
:1058C0001A697B681B6822F490421A617B681B6826
:1058D0005A697B681B6822F02A025A617B681B6840
:1058E000DA687B681B6842F40052DA607B68002249
:1058F0005A647B68202283F841207B68202283F849
:1059000042207B6800225A63002318460837BD46B0
:1059100080BD80B58AB002AFF860B9603B601346C5
:10592000FB8000237B61FB6893F84130DBB2202BC6
:1059300075D1BB68002B02D0FB88002B01D101235D
:105940006EE0FB6800225A64FB68212283F8412044
:10595000FCF708FD7861FB68FA889A84FB68FA888E
:10596000DA84FB689B68B3F5805F08D1FB681B692C
:10597000002B04D10023FB61BB68BB6103E0BB6863
:10598000FB610023BB612EE03B6800937B69002232
:105990008021F86800F048F80346002B05D0FB682A
:1059A000202283F8412003233AE0FB69002B0BD12E
:1059B000BB691B881A46FB681B68C2F308025A6061
:1059C000BB690233BB6107E0FB691A78FB681B689F
:1059D0005A60FB690133FB61FB68DB8C9BB2013BC6
:1059E0009AB2FB68DA84FB68DB8C9BB2002BCBD1CC
:1059F0003B6800937B6900224021F86800F014F8AE
:105A00000346002B05D0FB68202283F841200323A6
:105A100006E0FB68202283F84120002300E00223F7
:105A200018462037BD4680BD80B586B000AFF8600F
:105A3000B9603B601346FB713BE03B6AB3F1FF3F4B
:105A400037D0FCF78FFC02463B68D31A3A6A9A4279
:105A500002D33B6A002B01D103233AE0FB681B68A9
:105A6000DB6803F00403002B23D0BB68802B20D01D
:105A7000BB68402B1DD0FB681B681B6803F0080344
:105A8000082B16D100237B61FB681B681B687B61B8
:105A9000FB681B685B687B617B69F86800F01DF838
:105AA000FB6808225A64FB68002283F84020012327
:105AB0000FE0FB681B681A68BB681340BA689A421B
:105AC0000CBF01230023DBB21A46FB799A42B4D003
:105AD000002318461837BD4680BD80B495B000AF8E
