:020000040800F2
:1000000000500020AD1E0008B11C0008B91C0008FB
:10001000C11C0008C91C0008D11C00080000000019
:10002000000000000000000000000000D91C0008D3
:10003000E51C000800000000F11C0008FD1C000881
:10004000F51E0008F51E0008F51E0008F51E000844
:10005000F51E0008F51E0008F51E0008F51E000834
:10006000F51E0008F51E0008F51E0008F51E000824
:10007000F51E0008F51E0008F51E0008F51E000814
:10008000F51E0008F51E0008F51E0008F51E000804
:10009000F51E0008F51E0008F51E0008F51E0008F4
:1000A000F51E0008F51E0008F51E0008F51E0008E4
:1000B000F51E0008F51E0008F51E0008F51E0008D4
:1000C000F51E0008F51E0008F51E0008F51E0008C4
:1000D000091D0008F51E0008F51E0008F51E0008A1
:1000E000F51E0008F51E0008F51E000800000000BF
:1000F0000000000000000000000000000000000000
:0C01000000000000000000005FF808F1A3
:1001100010B5054C237833B9044B13B10448AFF341
:1001200000800123237010BDDC01002000000000CE
:100130000C97000808B5034B1BB103490348AFF304
:10014000008008BD00000000E00100200C970008BE
:10015000034613F8012B002AFBD1181A0138704707
:1001600081F0004102E000BF83F0004330B54FEA68
:1001700041044FEA430594EA050F08BF90EA020FD5
:100180001FBF54EA000C55EA020C7FEA645C7FEA68
:10019000655C00F0E2804FEA5454D4EB5555B8BF8B
:1001A0006D420CDD2C4480EA020281EA030382EAFC
:1001B000000083EA010180EA020281EA0303362D8E
:1001C00088BF30BD11F0004F4FEA01314FF4801C61
:1001D0004CEA113102D0404261EB410113F0004F73
:1001E0004FEA03334CEA133302D0524263EB43032A
:1001F00094EA050F00F0A780A4F10104D5F1200EC8
:100200000DDB02FA0EFC22FA05F2801841F1000122
:1002100003FA0EF2801843FA05F359410EE0A5F1F6
:1002200020050EF1200E012A03FA0EFC28BF4CF027
:10023000020C43FA05F3C01851EBE37101F00045DD
:1002400007D54FF0000EDCF1000C7EEB00006EEBEA
:100250000101B1F5801F1BD3B1F5001F0CD3490874
:100260005FEA30004FEA3C0C04F101044FEA4452CB
:1002700012F5800F80F09A80BCF1004F08BF5FEA52
:10028000500C50F1000041EB045141EA050130BD32
:100290005FEA4C0C404141EB0101013C28BFB1F544
:1002A000801FE9D291F0000F04BF01460020B1FA8F
:1002B00081F308BF2033A3F10B03B3F120020CDA62
:1002C0000C3208DD02F1140CC2F10C0201FA0CF040
:1002D00021FA02F10CE002F11402D8BFC2F1200CA5
:1002E00001FA02F120FA0CFCDCBF41EA0C0190405B
:1002F000E41AA2BF01EB0451294330BD6FEA0404A4
:100300001F3C1CDA0C340EDC04F11404C4F120028E
:1003100020FA04F001FA02F340EA030021FA04F3A0
:1003200045EA030130BDC4F10C04C4F1200220FAF7
:1003300002F001FA04F340EA0300294630BD21FA35
:1003400004F0294630BD94F0000F83F4801306BFFB
:1003500081F480110134013D4EE77FEA645C18BFEF
:100360007FEA655C29D094EA050F08BF90EA020F86
:1003700005D054EA000C04BF1946104630BD91EA7E
:10038000030F1EBF0021002030BD5FEA545C05D181
:100390004000494128BF41F0004130BD14F58004C0
:1003A0003CBF01F5801130BD01F0004545F0FE4134
:1003B00041F470014FF0000030BD7FEA645C1ABF69
:1003C000194610467FEA655C1CBF0B46024650EAA0
:1003D000013406BF52EA033591EA030F41F40021CC
:1003E00030BD00BF90F0000F04BF0021704730B552
:1003F0004FF4806404F132044FF000054FF0000127
:1004000050E700BF90F0000F04BF0021704730B5E7
:100410004FF4806404F1320410F0004548BF4042BC
:100420004FF000013EE700BF42004FEAE2014FEA11
:1004300031014FEA02701FBF12F07F4393F07F4FEC
:1004400081F06051704732F07F4208BF704793F0EF
:100450007F4F04BF41F40021704730B54FF4607402
:1004600001F0004521F000411CE700BF50EA010205
:1004700008BF704730B54FF000050AE050EA0102AE
:1004800008BF704730B511F0004502D5404261EB1E
:1004900041014FF4806404F132045FEA915C3FF45F
:1004A000D8AE4FF003025FEADC0C18BF03325FEAFC
:1004B000DC0C18BF033202EBDC02C2F1200300FAAD
:1004C00003FC20FA02F001FA03FE40EA0E0021FAD2
:1004D00002F11444BDE600BF70B54FF0FF0C4CF4C0
:1004E000E06C1CEA11541DBF1CEA135594EA0C0F72
:1004F00095EA0C0F00F0DEF82C4481EA030621EAAD
:100500004C5123EA4C5350EA013518BF52EA0335E7
:1005100041F4801143F4801338D0A0FB02CE4FF099
:100520000005E1FB02E506F00042E0FB03E54FF0C9
:100530000006E1FB03569CF0000F18BF4EF0010EC1
:10054000A4F1FF04B6F5007F64F5407404D25FEABD
:100550004E0E6D4146EB060642EAC62141EA555170
:100560004FEAC52040EA5E504FEACE2EB4F1FD0CB2
:1005700088BFBCF5E06F1ED8BEF1004F08BF5FEA30
:10058000500E50F1000041EB045170BD06F00046E2
:1005900046EA010140EA020081EA0301B4EB5C048F
:1005A000C2BFD4EB0C0541EA045170BD41F4801187
:1005B0004FF0000E013C00F3AB8014F1360FDEBFAC
:1005C000002001F0004170BDC4F10004203C35DA88
:1005D0000C341BDC04F11404C4F1200500FA05F30B
:1005E00020FA04F001FA05F240EA020001F00042AC
:1005F00021F0004110EBD37021FA04F642EB060122
:100600005EEA430E08BF20EAD37070BDC4F10C044B
:10061000C4F1200500FA04F320FA05F001FA04F20F
:1006200040EA020001F0004110EBD37041F10001FB
:100630005EEA430E08BF20EAD37070BDC4F1200506
:1006400000FA05F24EEA020E20FA04F301FA05F26E
:1006500043EA020321FA04F001F0004121FA04F216
:1006600020EA020000EBD3705EEA430E08BF20EAE6
:10067000D37070BD94F0000F0FD101F00046400020
:1006800041EB010111F4801F08BF013CF7D041EAA2
:10069000060195F0000F18BF704703F000465200A6
:1006A00043EB030313F4801F08BF013DF7D043EA77
:1006B0000603704794EA0C0F0CEA135518BF95EA2D
:1006C0000C0F0CD050EA410618BF52EA4306D1D1B4
:1006D00081EA030101F000414FF0000070BD50EAD3
:1006E000410606BF1046194652EA430619D094EA5D
:1006F0000C0F02D150EA013613D195EA0C0F05D147
:1007000052EA03361CBF104619460AD181EA03019A
:1007100001F0004141F0FE4141F470014FF0000052
:1007200070BD41F0FE4141F4780170BD70B54FF0ED
:10073000FF0C4CF4E06C1CEA11541DBF1CEA13556D
:1007400094EA0C0F95EA0C0F00F0A7F8A4EB05044F
:1007500081EA030E52EA03354FEA013100F0888046
:100760004FEA03334FF0805545EA131343EA12630F
:100770004FEA022245EA111545EA10654FEA0026C4
:100780000EF000419D4208BF964244F1FD0404F57D
:10079000407402D25B084FEA3202B61A65EB0305D9
:1007A0005B084FEA32024FF480104FF4002CB6EB96
:1007B000020E75EB030E22BFB61A754640EA0C0016
:1007C0005B084FEA3202B6EB020E75EB030E22BF56
:1007D000B61A754640EA5C005B084FEA3202B6EB97
:1007E000020E75EB030E22BFB61A754640EA9C0056
:1007F0005B084FEA3202B6EB020E75EB030E22BF26
:10080000B61A754640EADC0055EA060E18D04FEAE3
:10081000051545EA16754FEA06164FEAC30343EA83
:1008200052734FEAC2025FEA1C1CC0D111F4801F50
:100830000BD141EA00014FF000004FF0004CB6E749
:1008400011F4801F04BF01430020B4F1FD0C88BFE8
:10085000BCF5E06F3FF6AFAEB5EB030C04BFB6EBF3
:10086000020C5FEA500C50F1000041EB045170BDE6
:100870000EF0004E4EEA113114EB5C04C2BFD4EB13
:100880000C0541EA045170BD41F480114FF0000E97
:10089000013C90E645EA060E8DE60CEA135594EA13
:1008A0000C0F08BF95EA0C0F3FF43BAF94EA0C0F16
:1008B0000AD150EA01347FF434AF95EA0C0F7FF48B
:1008C00025AF104619462CE795EA0C0F06D152EADF
:1008D00003353FF4FDAE1046194622E750EA4106C3
:1008E00018BF52EA43067FF4C5AE50EA41047FF4D4
:1008F0000DAF52EA43057FF4EBAE12E74FF0FF3C39
:1009000006E000BF4FF0010C02E000BF4FF0010C09
:100910004DF804CD4FEA410C7FEA6C5C4FEA430C82
:1009200018BF7FEA6C5C1BD001B050EA410C0CBFD1
:1009300052EA430C91EA030F02BF90EA020F002033
:10094000704710F1000F91EA030F58BF994208BF9A
:1009500090422CBFD8176FEAE37040F00100704757
:100960004FEA410C7FEA6C5C02D150EA013C07D1AE
:100970004FEA430C7FEA6C5CD6D152EA033CD3D0F9
:100980005DF8040B704700BF8446104662468C46F3
:100990001946634600E000BF01B5FFF7B7FF002826
:1009A00048BF10F1000F01BD4DF808EDFFF7F4FF4F
:1009B0000CBF012000205DF808FB00BF4DF808EDDA
:1009C000FFF7EAFF34BF012000205DF808FB00BFFD
:1009D0004DF808EDFFF7E0FF94BF012000205DF81F
:1009E00008FB00BF4DF808EDFFF7CEFF94BF0120D4
:1009F00000205DF808FB00BF4DF808EDFFF7C4FFCD
:100A000034BF012000205DF808FB00BF4FEA410C15
:100A10007FEA6C5C02D150EA013C0AD14FEA430CF8
:100A20007FEA6C5C02D152EA033C02D14FF0000035
:100A300070474FF0010070474FEA410212F5001273
:100A400015D211D56FF47873B3EB625212D94FEA15
:100A5000C12343F0004343EA505311F0004F23FAFF
:100A600002F018BF404270474FF00000704750EA54
:100A7000013005D111F0004008BF6FF00040704711
:100A80004FF00000704700BF4A0011D212F500126B
:100A900011D20DD56FF47873B3EB62520ED44FEAD6
:100AA000C12343F0004343EA505323FA02F0704756
:100AB0004FF00000704750EA013002D14FF0FF3094
:100AC00070474FF0000070474FEA4102B2F1E04337
:100AD00024BFB3F5001CDCF1FE5C0DD901F0004C25
:100AE0004FEAC0024CEA5070B2F1004F40EB830075
:100AF00008BF20F00100704711F0804F21D113F1A1
:100B00003872BCBF01F00040704741F480114FEAD9
:100B10005252C2F11802C2F1200C10FA0CF320FA62
:100B200002F018BF40F001004FEAC1234FEAD3237F
:100B300003FA0CFC40EA0C0023FA02F34FEA4303E9
:100B4000CCE77FEA625307D150EA01331EBF4FF072
:100B5000FE4040F44000704701F0004040F0FE408D
:100B600040F40000704700BF42000ED2B2F1FE4FC9
:100B70000BD34FF09E03B3EB126209D44FEA00236C
:100B800043F0004323FA02F070474FF00000704733
:100B900012F1610F01D1420202D14FF0FF307047D4
:100BA0004FF00000704700BF38B500220023044614
:100BB0000D46FFF703FF28B920462946BDE8384017
:100BC00000F00AB8204605F1004100F005F8404267
:100BD00061EB410138BD00BFD0B500220B4B06468A
:100BE0000F46FFF779FCFFF74FFF0446FFF7FAFBCC
:100BF0000022074BFFF770FC02460B463046394691
:100C0000FFF7B2FAFFF740FF2146D0BD0000F03DEC
:100C10000000F04180B500AF01224FF4807102481E
:100C200002F020F800BF80BD0008014080B500AF91
:100C300000224FF48071024802F014F800BF80BD1A
:100C40000008014080B500AF01224FF480610248E6
:100C500002F008F800BF80BD0008014080B584B0F4
:100C600000AF03463960FB711346BB71FB7943F05B
:100C70002003DBB2FB73FFF7D9FF07F10F014FF43D
:100C80007A730122084802F04FFDBB799AB24FF403
:100C90007A733968044802F047FDFFF7BBFF00BFD5
:100CA0001037BD4680BD00BF2802002080B584B04B
:100CB00000AF03460A46FB711346BB71FB79FB7319
:100CC0000023BB73FFF7B2FF07F10F014FF47A73F4
:100CD0000122094802F028FDBB799AB207F10E0102
:100CE0004FF47A73044802F063FEFFF793FFBB7B77
:100CF00018461037BD4680BD2802002080B582B05E
:100D000000AF0346FB71F91D4FF47A7301220348CB
:100D100002F00AFD00BF0837BD4680BD2802002052
:100D200080B582B000AF0023FB7101210020FFF7E6
:100D3000BDFF0346FB71FB7943F00203DBB2FB719D
:100D4000FB1D012219460020FFF788FF00BF08376E
:100D5000BD4680BD80B584B000AF0346FB71002363
:100D6000FB7301210620FFF7A1FF0346FB73FB7B0A
:100D700023F04703DBB2FB7397F907305B005AB2ED
:100D8000FB7B5BB213435BB2DBB2FB7307F10F0378
:100D9000012219460620FFF761FF00BF1037BD464C
:100DA00080BD80B584B000AF0346FB710023FB73A8
:100DB00001210620FFF77AFF0346FB73FB7B23F03C
:100DC0002803DBB2FB73FB79012B05D1FB7B43F0DE
:100DD0000803DBB2FB7307E0FB79022B04D1FB7B3A
:100DE00043F02003DBB2FB7307F10F030122194626
:100DF0000620FFF733FF00BF1037BD4680BD80B52A
:100E000082B000AF0346FB71FB1D0122194605208D
:100E1000FFF724FF00BF0837BD4680BD80B582B014
:100E200000AF03460A46FB711346BB71BB79202B0A
:100E300001D92023BB71FB79052B39D801A252F8C7
:100E400023F000BF5D0E00086B0E0008790E00084D
:100E5000870E0008950E0008A30E0008BB1D012296
:100E600019461120FFF7FAFE22E0BB1D01221946A8
:100E70001220FFF7F3FE1BE0BB1D012219461320D1
:100E8000FFF7ECFE14E0BB1D012219461420FFF70A
:100E9000E5FE0DE0BB1D012219461520FFF7DEFE21
:100EA00006E0BB1D012219461620FFF7D7FE00BF42
:100EB00000BF0837BD4680BD80B584B000AF034693
:100EC0003960FB710023FB7301210220FFF7EEFE66
:100ED0000346FB73FB79052B50D801A252F823F08F
:100EE000F90E00080F0F0008250F00083B0F00083F
:100EF000510F0008670F0008052239680A20FFF724
:100F0000ADFEFB7B43F00103DBB2FB7336E0052251
:100F100039680B20FFF7A2FEFB7B43F00203DBB234
:100F2000FB732BE0012239680C20FFF797FEFB7B57
:100F300043F00403DBB2FB7320E0012239680D208B
:100F4000FFF78CFEFB7B43F00803DBB2FB7315E07D
:100F5000012239680E20FFF781FEFB7B43F010036E
:100F6000DBB2FB730AE0012239680F20FFF776FE3F
:100F7000FB7B43F02003DBB2FB7300BF07F10F03E1
:100F8000012219460220FFF769FE00BF1037BD4657
:100F900080BD00BF80B584B000AF03460A46FB7138
:100FA0001346BB7101210020FFF780FE0346FB734F
:100FB000FB7B23F00C03DBB2FB7397F90730DB00FC
:100FC0005AB297F906309B005BB213435AB2FB7BCF
:100FD0005BB213435BB2DBB2FB7307F10F03012279
:100FE00019460020FFF73AFE00BF1037BD4680BD0E
:100FF00080B500AFFFF71AFEE120FFF77FFEFFF795
:1010000009FE00BF80BD80B500AFFFF70FFEE220F4
:10101000FFF774FEFFF7FEFD00BF80BD80B584B012
:1010200002AF0023FB71FF23BB71FFF7FFFDFA1D29
:10103000B91D4FF47A7300930123054802F0D1FDE6
:10104000FFF7E8FDFB7918460837BD4680BD00BFB5
:101050002802002080B582B000AF0023FB71FFF7AB
:10106000DDFF0346FB71FB7943F04003DBB2FB710C
:10107000FB1D012219460720FFF7F0FD00BF0837CE
:10108000BD4680BD80B582B000AF0023FB71FFF785
:10109000C5FF0346FB71FB7943F02003DBB2FB7114
:1010A000FB1D012219460720FFF7D8FD00BF0837B6
:1010B000BD4680BD80B582B000AF0023FB71FFF755
:1010C000ADFF0346FB71FB7943F01003DBB2FB710C
:1010D000FB1D012219460720FFF7C0FD00BF08379E
:1010E000BD4680BD80B582B000AF0023FB710121F9
:1010F0000020FFF7DBFD0346FB71FB7943F00103A2
:10110000DBB2FB71FB1D012219460020FFF7A6FD93
:10111000FFF798FD00BF0837BD4680BD80B582B09F
:1011200000AF01211720FFF7C1FD0346FB71FB79DA
:1011300003F00103002B01D1012300E00023184636
:101140000837BD4680BD000080B584B000AF786030
:101150000B46FB706123FB73FFF768FD07F10F017E
:101160004FF47A730122094802F0DEFAFB789AB252
:101170004FF47A737968054802F01AFCFFF74AFDCC
:10118000FFF768FF00BF1037BD4680BD2802002072
:1011900080B500AFFFF7C4FDFFF72AFFFFF733FF6D
:1011A000FFF758FFFFF76EFFFFF784FF00BF80BD1A
:1011B00080B483B000AF0346FB80FB88642B01D969
:1011C0006423FB80FA8813461B049B1A0D4A82FB9A
:1011D00003125211DB17D21A4FF080435A63FA8878
:1011E00013461B049B1A074A82FB03125211DB179A
:1011F000D21A4FF080439A6300BF0C37BD4680BCC3
:10120000704700BF1F85EB5180B400AF074BDB6810
:10121000064B0022DA60054BDB68044A43F02803E2
:10122000D36000BFBD4680BC704700BF00080140CE
:1012300080B400AF074BDB68064B0022DA60054B39
:10124000DB68044A43F05003D36000BFBD4680BC56
:10125000704700BF0008014080B500AF0020FFF7D5
:10126000A7FF00BF80BD0000F0B5A1B004AF00F043
:1012700043FE00F0FBF800F0ABFA00F08BF900F051
:10128000BFF900F021FA00F047F900F077FA0021E9
:101290006A4803F0ADF80421684803F0A9F8042176
:1012A000674803F0A5F8FFF7B5FCFFF771FF0320CF
:1012B000FFF750FD0120FFF774FD00210120FFF72B
:1012C00069FE6420FFF79BFD08210020FFF7A6FDC3
:1012D0005C490020FFF7F0FDFFF704FF5A4800F0DB
:1012E00069FF5A4B1B881E46594B1B781C46584BAE
:1012F0005B781D46564B5B681846FFF795F802462B
:101300000B46381DCDE90223019500943346514A1E
:10131000642104F093FDF866FB6E9AB2391D4FF01C
:10132000FF334D4803F090FC642000F047FE464830
:1013300000F0EEFF03469AB2484B1A80474B1B88D9
:101340001A46642302FB03F31B139AB23F4B1A8025
:101350003E4B1B88212B0CD801224FF400514048F2
:1013600001F080FC00224FF400413D4801F07AFC7E
:1013700020E0364B1B88212B10D9344B1B88422B85
:101380000CD801224FF48041354801F06BFC00225B
:101390004FF40051324801F065FC0BE001224FF49C
:1013A00000412F4801F05EFC00224FF480412C48A0
:1013B00001F058FCFFF796FEFFF7B0FE0346002B46
:1013C0008FD008212748FFF7BFFE214B254A92E81E
:1013D000030083E803001E4B1B78012B02D1FFF7AB
:1013E0003BFF7EE71A4B1B78042B02D1FFF720FF4F
:1013F00005E0174B1B78022B01D1FFF705FF144BBB
:101400005B681846FFF7B0FB0346A7F86A300C4B41
:101410001B68B7F86A209A630D4B5B781846FFF794
:10142000C7FE0B4B1B78102B7FF45BAF0E4BDB68BA
:101430000D4A83F00103D36053E700BF8002002010
:10144000C802002000000020F80100206A030020EC
:10145000580300202897000810030020680300208C
:1014600000100140600300200014014080B594B0DA
:1014700000AF07F1280328220021184604F079FD67
:1014800007F1140300221A605A609A60DA601A6148
:101490003B1D00221A605A609A60DA600223BB6228
:1014A0000123BB631023FB6302237B640023BB6423
:1014B0004FF40023FB6407F12803184601F0EAFB10
:1014C0000346002B01D000F03BFA0F237B6102237F
:1014D000BB610023FB6100233B6200237B6207F1B9
:1014E00014030021184601F057FE0346002B01D0DB
:1014F00000F026FA02237B600023FB603B1D1846A8
:1015000001F0D8FF0346002B01D000F019FA00BF0C
:101510005037BD4680BD000080B584B000AF3B1D94
:1015200000221A605A609A60184B194A1A60174BC9
:1015300000229A60154B01221A73144B00221A756F
:10154000124B4FF46022DA61104B00225A600F4BAD
:1015500001221A610D4800F055FD0346002B01D011
:1015600000F0EEF902237B600123BB600023FB60E7
:101570003B1D1946054800F0D7FE0346002B01D05D
:1015800000F0DEF900BF1037BD4680BDF801002035
:101590000024014080B500AF174B184A1A60164B63
:1015A0004FF482725A60144B00229A60124B002250
:1015B000DA60114B00221A610F4B00225A610E4B68
:1015C0004FF400729A610C4B0022DA610A4B002240
:1015D0001A62094B00225A62074B00229A62064B9C
:1015E0000A22DA62044802F01BF80346002B01D0FD
:1015F00000F0A6F900BF80BD28020020003800409E
:1016000080B58AB000AF07F1200300221A605A604B
:101610003B1D00221A605A609A60DA601A615A61B2
:101620009A61284B4FF080421A60264B00225A6084
:10163000244B00229A60234B4FF6FF72DA60214B55
:1016400000221A611F4B00229A611E4802F081FE9F
:101650000346002B01D000F073F900233B62002306
:101660007B6207F120031946164803F03FFA034650
:10167000002B01D000F064F960237B600023BB6085
:101680000023FB6000237B613B1D002219460D48AF
:1016900002F050FF0346002B01D000F051F93B1D32
:1016A00004221946074802F045FF0346002B01D0EB
:1016B00000F046F9034800F049FA00BF2837BD465C
:1016C00080BD00BF8002002080B58AB000AF07F166
:1016D000200300221A605A603B1D00221A605A60E3
:1016E0009A60DA601A615A619A61224B224A1A6042
:1016F000204B63225A601F4B00229A601D4B40F61C
:101700007F42DA601B4B00221A611A4B80229A61D9
:10171000184802F01EFE0346002B01D000F010F91D
:1017200000233B6200237B6207F120031946114826
:1017300003F0DCF90346002B01D000F001F960232F
:101740007B600023BB600023FB6000237B613B1DAB
:1017500004221946074802F0EDFE0346002B01D093
:1017600000F0EEF8034800F0F1F900BF2837BD465D
:1017700080BD00BFC80200200004004080B500AF5B
:10178000114B124A1A60104B4FF416525A600E4B0E
:1017900000229A600C4B0022DA600B4B00221A6187
:1017A000094B0C225A61084B00229A61064B002219
:1017B000DA61054803F0F8F90346002B01D000F088
:1017C000BFF800BF80BD00BF1003002000480040EC
:1017D00080B58AB000AF07F1140300221A605A6086
:1017E0009A60DA604F4B9B694E4A43F01003936155
:1017F0004C4B9B6903F010033B613B69494B9B6970
:10180000484A43F020039361464B9B6903F0200351
:10181000FB60FB68434B9B69424A43F004039361BE
:10182000404B9B6903F00403BB60BB683D4B9B6965
:101830003C4A43F0080393613A4B9B6903F0080369
:101840007B607B6800224FF46041374801F00AFA60
:1018500000220321354801F005FA00224FF4AF6160
:10186000334801F0FFF900220321324801F0FAF970
:101870004FF460437B610123BB610023FB610223C2
:101880003B6207F114031946274801F067F8032368
:101890007B610123BB610023FB6102233B6207F1F3
:1018A00014031946214801F059F84FF4AF637B61E6
:1018B0000123BB610023FB6103233B6207F1140397
:1018C00019461B4801F04AF803237B610123BB61E1
:1018D0000023FB6102233B6207F1140319461548FC
:1018E00001F03CF84FF400737B61134BBB610023A4
:1018F000FB6107F1140319460D4801F02FF80F4B57
:101900005B687B627B6A43F0E0637B627B6A43F4E3
:1019100000437B62094A7B6A536000BF2837BD469B
:1019200080BD00BF001002400010014000140140C3
:1019300000080140000C014000002110000001409F
:1019400080B400AF72B600BF00BFFDE780B485B0C1
:1019500000AF1C4B9B691B4A43F001039361194B79
:101960009B6903F001037B607B68164BDB69154ABA
:1019700043F08053D361134BDB6903F080533B602A
:101980003B68114B5B68FB60FB6823F0E063FB6026
:10199000FB6843F00073FB600B4AFB6853600A4B23
:1019A0005B68BB60BB6823F0E063BB60BB6843F06F
:1019B0000073BB60044ABB68536000BF1437BD4668
:1019C00080BC7047001002400000014080B588B024
:1019D00000AF786007F1100300221A605A609A6025
:1019E000DA607B681B68144A934221D1134B9B69D0
:1019F000124A43F400739361104B9B6903F4007324
:101A0000FB60FB680D4B9B690C4A43F00403936138
:101A10000A4B9B6903F00403BB60BB6804233B6172
:101A200003237B6107F110031946054800F096FF78
:101A300000BF2037BD4680BD002401400010024099
:101A40000008014080B588B000AF786007F110034E
:101A500000221A605A609A60DA607B681B68204A2C
:101A6000934239D11F4BDB691E4A43F48043D36153
:101A70001C4BDB6903F48043FB60FB68194B9B69DB
:101A8000184A43F008039361164B9B6903F008035F
:101A9000BB60BB684FF420433B6102237B6103239F
:101AA000FB6107F1100319460F4800F057FF4FF490
:101AB00080433B6100237B610023BB6107F110037E
:101AC0001946094800F04AFF00220021242000F0B6
:101AD00096FE242000F0AFFE00BF2037BD4680BD3B
:101AE0000038004000100240000C014080B485B076
:101AF00000AF78607B681B68B3F1804F0CD1114B4D
:101B0000DB69104A43F00103D3610E4BDB6903F03C
:101B10000103FB60FB6810E07B681B680A4A934284
:101B20000BD1084BDB69074A43F00203D361054B35
:101B3000DB6903F00203BB60BB6800BF1437BD461E
:101B400080BC7047001002400004004080B58AB09D
:101B500000AF786007F1140300221A605A609A609F
:101B6000DA607B681B68B3F1804F18D1254B9B6905
:101B7000244A43F004039361224B9B6903F004035E
:101B80003B613B6903237B610223BB6102233B6210
:101B900007F1140319461C4800F0E0FE2EE07B68B4
:101BA0001B681A4A934229D1164B9B69154A43F088
:101BB00008039361134B9B6903F00803FB60FB6808
:101BC00020237B610223BB6102233B6207F11403E4
:101BD00019460F4800F0C2FE0E4B5B687B627B6AC1
:101BE00023F440637B627B6A43F0E0637B627B6A41
:101BF00043F400637B62074A7B6A536000BF283767
:101C0000BD4680BD001002400008014000040040B5
:101C1000000C01400000014080B588B000AF786042
:101C200007F1100300221A605A609A60DA607B683C
:101C30001B681C4A934231D11B4BDB691A4A43F49F
:101C40008023D361184BDB6903F48023FB60FB68BE
:101C5000154B9B69144A43F008039361124B9B692F
:101C600003F00803BB60BB684FF480633B61022351
:101C70007B610323FB6107F1100319460B4800F059
:101C80006DFE4FF400633B6100237B610023BB6169
:101C900007F110031946054800F060FE00BF203729
:101CA000BD4680BD0048004000100240000C0140CD
:101CB00080B400AF00BFFDE780B400AF00BFFDE718
:101CC00080B400AF00BFFDE780B400AF00BFFDE708
:101CD00080B400AF00BFFDE780B400AF00BFBD46D9
:101CE00080BC704780B400AF00BFBD4680BC704769
:101CF00080B400AF00BFBD4680BC704780B500AF68
:101D000000F040F900BF80BD80B500AF024802F08E
:101D100011F900BF80BD00BF2802002080B400AFD1
:101D200001231846BD4680BC704780B582B000AF25
:101D30007860396004F070F9034616221A604FF09B
:101D4000FF3318460837BD4680BD80B582B000AF6E
:101D500078604FF0FF317868FFF7E7FF00BFFDE7DD
:101D600080B586B000AFF860B9607A6000237B610F
:101D70000AE0AFF300800146BB685A1CBA60CAB2E1
:101D80001A707B6901337B617A697B689A42F0DB68
:101D90007B6818461837BD4680BD80B586B000AF59
:101DA000F860B9607A6000237B6109E0BB685A1C67
:101DB000BA601B781846AFF300807B6901337B6102
:101DC0007A697B689A42F1DB7B6818461837BD4612
:101DD00080BD80B483B000AF78604FF0FF33184609
:101DE0000C37BD4680BC704780B483B000AF7860CC
:101DF00039603B684FF400525A60002318460C3794
:101E0000BD4680BC704780B483B000AF78600123CA
:101E100018460C37BD4680BC704780B485B000AF13
:101E2000F860B9607A60002318461437BD4680BC5C
:101E30007047000080B586B000AF7860144A154B3B
:101E4000D31A7B617B693B61134B1B68002B02D16A
:101E5000114B124A1A60104B1A687B6813443A6996
:101E60009A4207D204F0D8F803460C221A604FF0C9
:101E7000FF3309E0084B1B68FB60074B1A687B685F
:101E80001344054A1360FB6818461837BD4680BDE9
:101E900000500020000400006C030020C00400205B
:101EA00080B400AF00BFBD4680BC7047FFF7F8FFAD
:101EB0000B480C490C4A002302E0D458C4500433A8
:101EC000C4188C42F9D3094A094C002301E013607D
:101ED0000432A242FBD304F0A5F8FFF7C5F970471E
:101EE00000000020DC010020AC9B0008DC01002089
:101EF000C0040020FEE7000080B500AF084B1B685F
:101F0000074A43F010031360032000F06DFC0F201C
:101F100000F008F8FFF71AFD0023184680BD00BF47
:101F20000020024080B582B000AF7860124B1A6882
:101F3000124B1B7819464FF47A73B3FBF1F3B2FBE3
:101F4000F3F3184600F085FC0346002B01D0012373
:101F50000EE07B680F2B0AD8002279684FF0FF3023
:101F600000F04DFC064A7B681360002300E001236B
:101F700018460837BD4680BD08000020100000202C
:101F80000C00002080B400AF054B1B781A46054BAF
:101F90001B681344034A136000BFBD4680BC7047F2
:101FA000100000207003002080B400AF024B1B68BB
:101FB0001846BD4680BC70477003002080B584B0D1
:101FC00000AF7860FFF7F0FFB8607B68FB60FB68EC
:101FD000B3F1FF3F05D00A4B1B781A46FB68134448
:101FE000FB6000BFFFF7E0FF0246BB68D31AFA6848
:101FF0009A42F7D800BF00BF1037BD4680BD00BF72
:102000001000002080B586B000AF78600023FB751B
:1020100000233B610023BB600023FB607B68002B37
:1020200001D10123BEE07B689B68002B7B689B6A23
:10203000002B09D17B680022DA627B68002283F8DA
:1020400024207868FFF7C2FC786800F0BFFA0346E6
:10205000FB757B689B6A03F01003002B40F09980AE
:10206000FB7D002B40F095807B689B6A23F48853AE
:1020700023F0020343F002027B689A627B685A688D
:102080007B68DB691A437B681B7B5B001343BA6880
:102090001343BB607B689B68B3F5807F03D07B688C
:1020A0009B68012B02D14FF4807300E000233A6952
:1020B00013433B617B681B7D012B19D17B681B7B24
:1020C000002B09D17B689B69013B5A033B69134391
:1020D00043F400633B610BE07B689B6A43F02002A2
:1020E0007B689A627B68DB6A43F001027B68DA6294
:1020F0007B681B685B6823F469417B681B683A69ED
:102100000A435A607B681B689A68284B13407A68B8
:102110001268B9680B4393607B689B68B3F5807F56
:1021200003D07B689B68012B04D17B681B69013B52
:102130001B05FB607B681B68DB6A23F470017B680E
:102140001B68FA680A43DA627B681B689A68184B56
:102150001340BA689A420BD17B680022DA627B682E
:102160009B6A23F0030343F001027B689A6218E044
:102170007B689B6A23F0120343F010027B689A622B
:102180007B68DB6A43F001027B68DA620123FB753E
:1021900007E07B689B6A43F010027B689A62012328
:1021A000FB75FB7D18461837BD4680BDFDF7E1FF86
:1021B000FE0E1FFF80B584B000AF78600023FB7374
:1021C0007B6893F82430012B01D1022398E07B68CF
:1021D000012283F82420786800F09EF90346FB73FF
:1021E000FB7B002B40F087807B689B6A23F4407365
:1021F00023F0010343F480727B689A627B681B685A
:10220000414A934205D1414B5B6803F47023002B94
:1022100015D17B689B6A23F480127B689A627B6885
:102220001B685B6803F48063002B26D07B689B6A85
:1022300023F4405343F480527B689A621DE07B682C
:102240009B6A43F480127B689A627B681B682F4A02
:10225000934204D07B681B682B4A93420DD12B4BD1
:102260005B6803F48063002B07D07B689B6A23F4D0
:10227000405343F480527B689A627B689B6A03F404
:102280008053002B06D07B68DB6A23F006027B6854
:10229000DA6202E07B680022DA627B68002283F85F
:1022A00024207B681B686FF002021A607B681B6841
:1022B0009B6803F46023B3F5602F13D17B681B6820
:1022C000114A934205D1114B5B6803F47023002B34
:1022D00008D17B681B689A687B681B6842F4A0027F
:1022E0009A600CE07B681B689A687B681B6842F404
:1022F00080129A6003E07B68002283F82420FB7B35
:1023000018461037BD4680BD00280140002401401A
:1023100080B483B000AF78607B681B68DB6C1846C4
:102320000C37BD4680BC704780B485B000AF786084
:1023300039600023FB730023BB607B6893F8243073
:10234000012B01D10223DCE07B68012283F82420E9
:102350003B685B68062B1CD87B681B68596B3B6825
:102360005A6813469B001344053B1F2202FA03F3ED
:10237000DB4319403B6818683B685A6813469B006A
:102380001344053B00FA03F27B681B680A435A6357
:102390003CE03B685B680C2B1CD87B681B68196BA6
:1023A0003B685A6813469B001344233B1F2202FAE2
:1023B00003F3DB4319403B6818683B685A681346CF
:1023C0009B001344233B00FA03F27B681B680A431B
:1023D0001A631BE07B681B68D96A3B685A6813461E
:1023E0009B001344413B1F2202FA03F3DB431940D5
:1023F0003B6818683B685A6813469B001344413B8E
:1024000000FA03F27B681B680A43DA623B681B68C8
:10241000092B1CD97B681B68D9683B681A6813466E
:102420005B0013441E3B072202FA03F3DB4319400F
:102430003B6898683B681A6813465B0013441E3B70
:1024400000FA03F27B681B680A43DA6019E07B68D4
:102450001B6819693B681A6813465B00134407221E
:1024600002FA03F3DB4319403B6898683B681A683B
:1024700013465B00134400FA03F27B681B680A43AF
:102480001A613B681B68102B03D03B681B68112B3B
:1024900032D17B681B681D4A934225D17B681B683B
:1024A0009B6803F40003002B26D17B681B689A68A5
:1024B0007B681B6842F400029A603B681B68102B23
:1024C0001AD1134B1B68134AA2FB03239A0C134621
:1024D0009B0013445B00BB6002E0BB68013BBB6038
:1024E000BB68002BF9D107E07B689B6A43F02002B0
:1024F0007B689A620123FB737B68002283F82420A7
:10250000FB7B18461437BD4680BC70470024014051
:102510000800002083DE1B4380B584B000AF7860E4
:102520000023FB600023BB607B681B689B6803F093
:102530000103012B40D07B681B689A687B681B688D
:1025400042F001029A601F4B1B681F4AA2FB032343
:102550009B0CBB6002E0BB68013BBB60BB68002B0F
:10256000F9D1FFF721FDF8601FE0FFF71DFD0246DE
:10257000FB68D31A022B18D97B681B689B6803F091
:102580000103012B11D07B689B6A43F010027B682A
:102590009A627B68DB6A43F001027B68DA627B68DF
:1025A000002283F82420012307E07B681B689B68D6
:1025B00003F00103012BD8D1002318461037BD4684
:1025C00080BD00BF0800002083DE1B4380B584B0BF
:1025D00000AF78600023FB607B681B689B6803F09A
:1025E0000103012B2ED17B681B689A687B681B68EE
:1025F00022F001029A60FFF7D7FCF8601BE0FFF7BA
:10260000D3FC0246FB68D31A022B14D97B681B68E3
:102610009B6803F00103012B0DD17B689B6A43F09B
:1026200010027B689A627B68DB6A43F001027B6878
:10263000DA62012307E07B681B689B6803F00103F3
:10264000012BDCD0002318461037BD4680BD0000AA
:1026500080B485B000AF78607B6803F00703FB604F
:102660000C4BDB68BB60BA684FF6FF031340BB60DE
:10267000FB681A02BB68134343F0BF6343F40033A3
:10268000BB60044ABB68D36000BF1437BD4680BC42
:10269000704700BF00ED00E080B400AF044BDB6882
:1026A0001B0A03F007031846BD4680BC704700BFF5
:1026B00000ED00E080B483B000AF0346FB7197F9F2
:1026C0000730002B0BDBFB7903F01F02064997F95B
:1026D00007305B09012000FA02F241F8232000BF15
:1026E0000C37BD4680BC704700E100E080B483B089
:1026F00000AF03463960FB7197F90730002B0ADB06
:102700003B68DAB20C4997F907301201D2B20B4498
:1027100083F800230AE03B68DAB20849FB7903F04A
:102720000F03043B1201D2B20B441A7600BF0C37E0
:10273000BD4680BC704700BF00E100E000ED00E056
:1027400080B489B000AFF860B9607A60FB6803F0CC
:102750000703FB61FB69C3F10703042B28BF0423B4
:10276000BB61FB690433062B02D9FB69033B00E024
:1027700000237B614FF0FF32BB6902FA03F3DA43B7
:10278000BB681A407B699A404FF0FF317B6901FAC0
:1027900003F3D9437B680B40134318462437BD46E7
:1027A00080BC704780B582B000AF78607B68013B29
:1027B000B3F1807F01D301230FE00A4A7B68013B1C
:1027C00053600F214FF0FF30FFF790FF054B0022C1
:1027D0009A60044B07221A60002318460837BD464A
:1027E00080BD00BF10E000E080B582B000AF78602F
:1027F0007868FFF72DFF00BF0837BD4680BD80B564
:1028000086B000AF0346B9607A60FB7300237B613A
:10281000FFF742FF78617A68B9687869FFF790FF3F
:10282000024697F90F3011461846FFF75FFF00BFC9
:102830001837BD4680BD80B582B000AF0346FB713E
:1028400097F907301846FFF735FF00BF0837BD4638
:1028500080BD80B582B000AF78607868FFF7A2FFD6
:10286000034618460837BD4680BD000080B584B0D9
:1028700000AF78600023FB737B6893F82130DBB2F4
:10288000022B05D07B6804229A630123FB7351E07D
:102890007B681B681A687B681B6822F00E021A604E
:1028A0007B681B681A687B681B6822F001021A604B
:1028B0007B681B68224A934229D07B681B68214AA7
:1028C000934222D07B681B681F4A93421AD07B68D0
:1028D0001B681E4A934212D07B681B681C4A9342B5
:1028E0000AD07B681B681B4A934202D14FF48013C5
:1028F0000EE04FF080730BE04FF4803308E04FF4AC
:10290000805305E04FF4807302E0102300E00123C0
:10291000114A53607B68012283F821207B680022E2
:1029200083F820207B685B6B002B03D07B685B6B9C
:1029300078689847FB7B18461037BD4680BD00BFBE
:10294000080002401C0002403000024044000240E7
:10295000580002406C0002400000024080B48BB07E
:1029600000AF7860396000237B6200233B6269E13D
:1029700001227B6A02FA03F3FB613B681B68FA6978
:102980001340BB61BA69FB699A4240F058813B68C9
:102990005B689A4A93425ED0984A934275D8984AA7
:1029A000934258D0964A93426FD8964A934252D057
:1029B000944A934269D8944A93424CD0924A9342A3
:1029C00063D8924A934246D0904A93425DD8122BE4
:1029D0002AD8122B59D801A252F823F0572A0008FE
:1029E000312A0008432A0008852A00088B2A00089B
:1029F0008B2A00088B2A00088B2A00088B2A0008E3
:102A00008B2A00088B2A00088B2A00088B2A0008D2
:102A10008B2A00088B2A00088B2A00088B2A0008C2
:102A2000392A00084D2A0008794A934213D02CE035
:102A30003B68DB683B6229E03B68DB6804333B6250
:102A400024E03B68DB6808333B621FE03B68DB68DF
:102A50000C333B621AE03B689B68002B02D10423D5
:102A60003B6213E03B689B68012B05D108233B6266
:102A70007B68FA691A6109E008233B627B68FA699E
:102A80005A6103E000233B6200E000BFBB69FF2BFB
:102A900001D87B6801E07B6804337B61BB69FF2B55
:102AA00002D87B6A9B0002E07B6A083B9B003B618B
:102AB0007B691A680F213B6901FA03F3DB431A4073
:102AC000396A3B6901FA03F31A437B691A603B6870
:102AD0005B6803F08053002B00F0B1804D4B9B6985
:102AE0004C4A43F0010393614A4B9B6903F0010395
:102AF000BB60BB68484A7B6A9B08023352F82330AC
:102B0000FB607B6A03F003039B000F2202FA03F3CE
:102B1000DB43FA681340FB607B68404A934213D062
:102B20007B683F4A93420DD07B683E4A934207D070
:102B30007B683D4A934201D1032306E0042304E06D
:102B4000022302E0012300E000237A6A02F003027C
:102B500092009340FA681343FB602F497B6A9B08FD
:102B60000233FA6841F823203B685B6803F4801362
:102B7000002B06D02D4B9A682C49BB6913438B6000
:102B800006E02A4B9A68BB69DB43284913408B60F7
:102B90003B685B6803F40013002B06D0234BDA6814
:102BA0002249BB691343CB6006E0204BDA68BB695E
:102BB000DB431E491340CB603B685B6803F4003382
:102BC000002B06D0194B5A681849BB6913434B6058
:102BD00006E0164B5A68BB69DB43144913404B604F
:102BE0003B685B6803F48033002B21D00F4B1A68DD
:102BF0000E49BB6913430B6021E000BF0000321097
:102C000000003110000022100000211000001210FE
:102C100000001110001002400000014000080140B7
:102C2000000C01400010014000140140000401406C
:102C30000B4B1A68BB69DB43094913400B607B6A85
:102C400001337B623B681A687B6A22FA03F3002B2C
:102C50007FF48EAE00BF00BF2C37BD4680BC7047EE
:102C60000004014080B483B000AF78600B467B80E5
:102C700013467B707B78002B03D07A887B681A61BF
:102C800003E07B881A047B681A6100BF0C37BD46DD
:102C900080BC704780B586B000AF78607B68002B41
:102CA00001D1012372E27B681B6803F00103002B52
:102CB00000F08780924B5B6803F00C03042B0CD070
:102CC0008F4B5B6803F00C03082B12D18C4B5B68B5
:102CD00003F48033B3F5803F0BD1894B1B6803F4B9
:102CE0000033002B6CD07B685B68002B68D101231C
:102CF0004CE27B685B68B3F5803F06D1804B1B6874
:102D00007F4A43F4803313602EE07B685B68002BBE
:102D10000CD17B4B1B687A4A23F480331360784BC9
:102D20001B68774A23F4802313601DE07B685B688F
:102D3000B3F5A02F0CD1724B1B68714A43F480236A
:102D400013606F4B1B686E4A43F4803313600BE0D3
:102D50006B4B1B686A4A23F480331360684B1B6813
:102D6000674A23F4802313607B685B68002B13D0D1
:102D7000FFF71AF9386108E0FFF716F902463B69D8
:102D8000D31A642B01D9032300E25D4B1B6803F4C3
:102D90000033002BF0D014E0FFF706F9386108E0AB
:102DA000FFF702F902463B69D31A642B01D90323CA
:102DB000ECE1534B1B6803F40033002BF0D100E02F
:102DC00000BF7B681B6803F00203002B63D04C4BF1
:102DD0005B6803F00C03002B0BD0494B5B6803F0DE
:102DE0000C03082B1CD1464B5B6803F48033002B8B
:102DF00016D1434B1B6803F00203002B05D07B6800
:102E00001B69012B01D00123C0E13D4B1B6823F05E
:102E1000F8027B685B69DB00394913430B603AE0D9
:102E20007B681B69002B20D0364B01221A60FFF70C
:102E3000BBF8386108E0FFF7B7F802463B69D31AE0
:102E4000022B01D90323A1E12D4B1B6803F00203E0
:102E5000002BF0D02A4B1B6823F0F8027B685B69DB
:102E6000DB00274913430B6015E0264B00221A6054
:102E7000FFF79AF8386108E0FFF796F802463B69D9
:102E8000D31A022B01D9032380E11D4B1B6803F0E9
:102E90000203002BF0D17B681B6803F00803002BB2
:102EA0003AD07B689B69002B19D0174B01221A601E
:102EB000FFF77AF8386108E0FFF776F802463B69D9
:102EC000D31A022B01D9032360E10D4B5B6A03F097
:102ED0000203002BF0D0012000F0CEFA1CE00A4BD8
:102EE00000221A60FFF760F838610FE0FFF75CF826
:102EF00002463B69D31A022B08D9032346E100BFDF
:102F0000001002400000424280044242924B5B6A41
:102F100003F00203002BE9D17B681B6803F0040374
:102F2000002B00F0A6800023FB758B4BDB6903F0C0
:102F30008053002B0DD1884BDB69874A43F08053C7
:102F4000D361854BDB6903F08053BB60BB68012311
:102F5000FB75824B1B6803F48073002B18D17F4BE9
:102F60001B687E4A43F480731360FFF71DF83861D5
:102F700008E0FFF719F802463B69D31A642B01D920
:102F8000032303E1754B1B6803F48073002BF0D01F
:102F90007B68DB68012B06D16F4B1B6A6E4A43F0DE
:102FA000010313622DE07B68DB68002B0CD16A4BB8
:102FB0001B6A694A23F001031362674B1B6A664A66
:102FC00023F0040313621CE07B68DB68052B0CD143
:102FD000614B1B6A604A43F0040313625E4B1B6A39
:102FE0005D4A43F0010313620BE05B4B1B6A5A4AD4
:102FF00023F001031362584B1B6A574A23F0040362
:1030000013627B68DB68002B15D0FEF7CDFF3861BB
:103010000AE0FEF7C9FF02463B69D31A41F2883243
:10302000934201D90323B1E04B4B1B6A03F0020327
:10303000002BEED014E0FEF7B7FF38610AE0FEF790
:10304000B3FF02463B69D31A41F28832934201D959
:1030500003239BE0404B1B6A03F00203002BEED1DD
:10306000FB7D012B05D13C4BDB693B4A23F08053B0
:10307000D3617B68DB69002B00F08780364B5B688F
:1030800003F00C03082B61D07B68DB69022B46D16F
:10309000334B00221A60FEF787FF386108E0FEF725
:1030A00083FF02463B69D31A022B01D903236DE04B
:1030B000294B1B6803F00073002BF0D17B681B6A5F
:1030C000B3F5803F08D1244B5B6823F400327B6862
:1030D0009B68214913434B601F4B5B6823F47412B8
:1030E0007B68196A7B685B6A0B431B4913434B601F
:1030F0001B4B01221A60FEF757FF386108E0FEF70C
:1031000053FF02463B69D31A022B01D903233DE04A
:10311000114B1B6803F00073002BF0D035E0104B0F
:1031200000221A60FEF740FF386108E0FEF73CFF1E
:1031300002463B69D31A022B01D9032326E0064B32
:103140001B6803F00073002BF0D11EE07B68DB6985
:10315000012B07D1012319E000100240007000404C
:10316000600042420B4B5B68FB60FB6803F48032FB
:103170007B681B6A9A4206D1FB6803F470127B6875
:103180005B6A9A4201D0012300E0002318461837F9
:10319000BD4680BD0010024080B584B000AF7860AD
:1031A00039607B68002B01D10123D0E06A4B1B689A
:1031B00003F007033A689A4210D9674B1B6823F063
:1031C000070265493B6813430B60634B1B6803F0C0
:1031D00007033A689A4201D00123B8E07B681B6874
:1031E00003F00203002B20D07B681B6803F004036C
:1031F000002B05D0594B5B68584A43F4E063536099
:103200007B681B6803F00803002B05D0534B5B68F9
:10321000524A43F460535360504B5B6823F0F00212
:103220007B689B684D4913434B607B681B6803F0C8
:103230000103002B40D07B685B68012B07D1474B13
:103240001B6803F40033002B15D101237FE07B685A
:103250005B68022B07D1414B1B6803F00073002B06
:1032600009D1012373E03D4B1B6803F00203002BDF
:1032700001D101236BE0394B5B6823F003027B68CB
:103280005B68364913434B60FEF78EFEF8600AE038
:10329000FEF78AFE0246FB68D31A41F28832934257
:1032A00001D9032353E02D4B5B6803F00C027B68CC
:1032B0005B689B009A42EBD1274B1B6803F0070326
:1032C0003A689A4210D2244B1B6823F00702224925
:1032D0003B6813430B60204B1B6803F007033A68FD
:1032E0009A4201D0012332E07B681B6803F004039B
:1032F000002B08D0194B5B6823F4E0627B68DB6825
:10330000164913434B607B681B6803F00803002BCE
:1033100009D0124B5B6823F460527B681B69DB00A9
:103320000E4913434B6000F021F802460B4B5B68DB
:103330001B0903F00F030A49CB5C22FA03F3094A85
:103340001360094B1B681846FEF7ECFD0023184676
:103350001037BD4680BD00BF002002400010024073
:103360004C970008080000200C00002080B487B0B3
:1033700000AF0023FB600023BB6000237B610023C0
:103380007B6000233B611E4B5B68FB60FB6803F0C6
:103390000C03042B02D0082B03D027E0194B3B6110
:1033A00027E0FB689B0C03F00F03174AD35C7B609C
:1033B000FB6803F48033002B10D0114B5B685B0C6F
:1033C00003F00103114AD35CBB607B680D4A03FB29
:1033D00002F2BB68B2FBF3F37B6104E07B680C4A4A
:1033E00002FB03F37B617B693B6102E0054B3B61C0
:1033F00000BF3B6918461C37BD4680BC704700BF04
:103400000010024000127A006497000874970008C8
:1034100000093D0080B400AF024B1B681846BD4652
:1034200080BC70470800002080B500AFFFF7F2FFB6
:103430000246054B5B681B0A03F007030349CB5C9C
:1034400022FA03F3184680BD001002405C97000882
:1034500080B500AFFFF7DEFF0246054B5B68DB0A75
:1034600003F007030349CB5C22FA03F3184680BD3F
:10347000001002405C97000880B485B000AF78600F
:103480000A4B1B680A4AA2FB03235B0A7A6802FB09
:1034900003F3FB6000BFFB685A1EFA60002BF9D1F2
:1034A00000BF00BF1437BD4680BC70470800002035
:1034B000D34D621080B586B000AF786000233B61C9
:1034C0000023FB607B681B6803F00103002B7DD0A9
:1034D0000023FB754F4BDB6903F08053002B0DD1AC
:1034E0004C4BDB694B4A43F08053D361494BDB695A
:1034F00003F08053BB60BB680123FB75464B1B6820
:1035000003F48073002B18D1434B1B68424A43F4E9
:1035100080731360FEF748FD386108E0FEF744FD54
:1035200002463B69D31A642B01D903236DE03A4B61
:103530001B6803F48073002BF0D0364B1B6A03F436
:103540004073FB60FB68002B2ED07B685B6803F444
:103550004073FA689A4227D02E4B1B6A23F44073BB
:10356000FB602E4B01221A602C4B00221A60294A64
:10357000FB681362FB6803F00103002B14D0FEF715
:1035800013FD38610AE0FEF70FFD02463B69D31ACE
:1035900041F28832934201D9032336E01D4B1B6A66
:1035A00003F00203002BEED01A4B1B6A23F4407287
:1035B0007B685B68174913430B62FB7D012B05D1C8
:1035C000144BDB69134A23F08053D3617B681B687B
:1035D00003F00203002B08D00E4B5B6823F440423B
:1035E0007B689B680B4913434B607B681B6803F047
:1035F0001003002B08D0074B5B6823F480027B6824
:10360000DB68044913434B60002318461837BD4656
:1036100080BD00BF001002400070004040044242E4
:1036200080B582B000AF78607B68002B01D10123A8
:1036300076E07B685B6A002B08D17B685B68B3F53A
:10364000827F09D07B680022DA6105E07B68002276
:103650001A617B6800225A617B6800229A627B684B
:1036600093F85130DBB2002B06D17B68002283F83F
:1036700050207868FEF7E6F97B68022283F8512033
:103680007B681B681A687B681B6822F040021A601E
:103690007B685B6803F482727B689B6803F4044375
:1036A0001A437B68DB6803F400631A437B681B6979
:1036B00003F002031A437B685B6903F001031A43BA
:1036C0007B689B6903F400731A437B68DB6903F032
:1036D00038031A437B681B6A03F0800342EA030144
:1036E0007B689B6A03F400527B681B680A431A607C
:1036F0007B689B691A0C7B681B6802F004025A60A5
:103700007B681B68DA697B681B6822F40062DA61F7
:103710007B6800225A657B68012283F851200023D0
:1037200018460837BD4680BD80B588B000AFF86048
:10373000B9603B601346FB80FEF736FCF861FB88FE
:103740007B83FB6893F85130DBB2012B01D002235D
:103750002AE1BB68002B02D0FB88002B01D101239A
:1037600022E1FB6893F85030012B01D102231BE1C9
:10377000FB68012283F85020FB68032283F8512064
:10378000FB6800225A65FB68BA681A63FB68FA880E
:103790009A86FB68FA88DA86FB6800229A63FB68DF
:1037A00000229A87FB680022DA87FB6800225A64AD
:1037B000FB6800221A64FB689B68B3F5004F0FD1C9
:1037C000FB681B681A68FB681B6822F040021A60DD
:1037D000FB681B681A68FB681B6842F480421A6029
:1037E000FB681B681B6803F04003402B07D0FB6895
:1037F0001B681A68FB681B6842F040021A60FB688D
:10380000DB68B3F5006F52D1FB685B68002B02D018
:103810007B8B012B45D1FB681B6B1A88FB681B68EF
:10382000DA60FB681B6B9A1CFB681A63FB68DB8E13
:103830009BB2013B9AB2FB68DA8632E0FB681B68F8
:103840009B6803F00203022B12D1FB681B6B1A88E2
:10385000FB681B68DA60FB681B6B9A1CFB681A63C9
:10386000FB68DB8E9BB2013B9AB2FB68DA8618E0FC
:10387000FEF79AFB0246FB69D31A3A689A4203D8CC
:103880003B68B3F1FF3F02D13B68002B09D1FB68D5
:10389000012283F85120FB68002283F85020032383
:1038A00082E0FB68DB8E9BB2002BC7D153E0FB6844
:1038B0005B68002B02D07B8B012B47D1FB681A6B16
:1038C000FB681B680C3312781A70FB681B6B5A1C60
:1038D000FB681A63FB68DB8E9BB2013B9AB2FB6804
:1038E000DA8633E0FB681B689B6803F00203022B57
:1038F00013D1FB681A6BFB681B680C3312781A70C3
:10390000FB681B6B5A1CFB681A63FB68DB8E9BB25F
:10391000013B9AB2FB68DA8618E0FEF745FB0246E7
:10392000FB69D31A3A689A4203D83B68B3F1FF3F68
:1039300002D13B68002B09D1FB68012283F851209A
:10394000FB68002283F8502003232DE0FB68DB8E08
:103950009BB2002BC6D1FA693968F86800F0C8FC40
:103960000346002B02D0FB6820225A65FB689B6847
:10397000002B0AD100237B61FB681B68DB687B613D
:10398000FB681B689B687B617B69FB68012283F88D
:103990005120FB68002283F85020FB685B6D002BF0
:1039A00001D0012300E0002318462037BD4680BD2A
:1039B00080B588B002AFF860B9603B601346FB8009
:1039C000FB6893F85130DBB2012B01D0022304E1F4
:1039D000FB685B68B3F5827F12D1FB689B68002BA4
:1039E0000ED1FB68042283F85120FA883B680093CB
:1039F0001346BA68B968F86800F0F3F80346ECE0DB
:103A0000FEF7D2FA7861BB68002B02D0FB88002B4E
:103A100001D10123E1E0FB6893F85030012B01D183
:103A20000223DAE0FB68012283F85020FB680422BD
:103A300083F85120FB6800225A65FB68BA689A63D4
:103A4000FB68FA889A87FB68FA88DA87FB680022A5
:103A50001A63FB6800229A86FB680022DA86FB68FC
:103A600000221A64FB6800225A64FB689B68B3F565
:103A7000004F0FD1FB681B681A68FB681B6822F0B7
:103A800040021A60FB681B681A68FB681B6822F416
:103A900080421A60FB681B681B6803F04003402BE0
:103AA00007D0FB681B681A68FB681B6842F040027D
:103AB0001A60FB68DB68002B70D135E0FB681B687F
:103AC0009B6803F00103012B15D1FB681B6803F110
:103AD0000C02FB689B6B1278D2B21A70FB689B6B6E
:103AE0005A1CFB689A63FB68DB8F9BB2013B9AB25E
:103AF000FB68DA8718E0FEF757FA02467B69D31AAB
:103B00003A689A4203D83B68B3F1FF3F02D13B6861
:103B1000002B09D1FB68012283F85120FB680022A9
:103B200083F85020032358E0FB68DB8F9BB2002B07
:103B3000C4D138E0FB681B689B6803F00103012BCC
:103B400013D1FB681B68DA68FB689B6B92B21A8022
:103B5000FB689B6B9A1CFB689A63FB68DB8F9BB2CC
:103B6000013B9AB2FB68DA8718E0FEF71DFA0246BD
:103B70007B69D31A3A689A4203D83B68B3F1FF3F96
:103B800002D13B68002B09D1FB68012283F8512048
:103B9000FB68002283F8502003231EE0FB68DB8FC4
:103BA0009BB2002BC6D17A693968F86800F04EFBE9
:103BB0000346002B02D0FB6820225A65FB680122D5
:103BC00083F85120FB68002283F85020FB685B6D6E
:103BD000002B01D0012300E0002318461837BD4612
:103BE00080BD80B58AB000AFF860B9607A607B8034
:103BF00001237B62FEF7D8F93862FB6893F85130F5
:103C0000FB77FB685B68BB617B88FB82FB7F012BDA
:103C10000CD0BB69B3F5827F06D1FB689B68002B93
:103C200002D1FB7F042B01D002237FE1BB68002B74
:103C300005D07B68002B02D07B88002B01D10123AB
:103C400074E1FB6893F85030012B01D102236DE140
:103C5000FB68012283F85020FB6893F85130DBB2F7
:103C6000042B03D0FB68052283F85120FB68002257
:103C70005A65FB687A689A63FB687A88DA87FB681A
:103C80007A889A87FB68BA681A63FB687A88DA864A
:103C9000FB687A889A86FB6800221A64FB68002217
:103CA0005A64FB681B681B6803F04003402B07D075
:103CB000FB681B681A68FB681B6842F040021A60C8
:103CC000FB68DB68B3F5006F7ED1FB685B68002B97
:103CD00002D0FB8A012B6CD1FB681B6B1A88FB6836
:103CE0001B68DA60FB681B6B9A1CFB681A63FB6835
:103CF000DB8E9BB2013B9AB2FB68DA8659E0FB6827
:103D00001B689B6803F00203022B1BD1FB68DB8E50
:103D10009BB2002B16D07B6A012B13D1FB681B6B67
:103D20001A88FB681B68DA60FB681B6B9A1CFB68CF
:103D30001A63FB68DB8E9BB2013B9AB2FB68DA86A2
:103D400000237B62FB681B689B6803F00103012B67
:103D500019D1FB68DB8F9BB2002B14D0FB681B686A
:103D6000DA68FB689B6B92B21A80FB689B6B9A1CAB
:103D7000FB689A63FB68DB8F9BB2013B9AB2FB68DE
:103D8000DA8701237B62FEF70FF902463B6AD31AFA
:103D90003A6B9A420DD83B6BB3F1FF3F09D0FB68F9
:103DA000012283F85120FB68002283F8502003236E
:103DB000BCE0FB68DB8E9BB2002BA0D1FB68DB8FE5
:103DC0009BB2002B9BD182E0FB685B68002B02D08A
:103DD000FB8A012B71D1FB681A6BFB681B680C33E3
:103DE00012781A70FB681B6B5A1CFB681A63FB681D
:103DF000DB8E9BB2013B9AB2FB68DA865DE0FB6822
:103E00001B689B6803F00203022B1CD1FB68DB8E4E
:103E10009BB2002B17D07B6A012B14D1FB681A6B65
:103E2000FB681B680C3312781A70FB681B6B5A1CFA
:103E3000FB681A63FB68DB8E9BB2013B9AB2FB689E
:103E4000DA8600237B62FB681B689B6803F0010332
:103E5000012B19D1FB68DB8F9BB2002B14D0FB68C0
:103E60001B68DA68FB689B6BD2B21A70FB689B6BAD
:103E70005A1CFB689A63FB68DB8F9BB2013B9AB2CA
:103E8000FB68DA8701237B62FEF78EF802463B6A05
:103E9000D31A3A6B9A4203D83B6BB3F1FF3F02D17E
:103EA0003B6B002B09D1FB68012283F85120FB6892
:103EB000002283F85020032338E0FB68DB8E9BB29E
:103EC000002B9CD1FB68DB8F9BB2002B97D13A6A09
:103ED000396BF86800F00CFA0346002B08D0FB6839
:103EE00020225A65FB68002283F8502001231DE040
:103EF000FB689B68002B0AD100233B61FB681B68B1
:103F0000DB683B61FB681B689B683B613B69FB6846
:103F1000012283F85120FB68002283F85020FB68BF
:103F20005B6D002B01D0012300E0002318462837E9
:103F3000BD4680BD80B588B000AF78607B681B68E7
:103F40005B68FB617B681B689B68BB61BB699B0905
:103F500003F00103002B0FD1BB6903F00103002B19
:103F60000AD0FB699B0903F00103002B04D07B6896
:103F70001B6C78689847BEE0BB695B0803F00103DF
:103F8000002B0AD0FB69DB0903F00103002B04D0EE
:103F90007B685B6C78689847ADE0BB695B0903F0B0
:103FA0000103002B06D1BB699B0903F00103002B21
:103FB00000F0A180FB695B0903F00103002B00F016
:103FC0009A80BB699B0903F00103002B23D07B6817
:103FD00093F85130DBB2032B11D07B685B6D43F05B
:103FE00004027B685A6500237B617B681B68DB6881
:103FF0007B617B681B689B687B617B690BE00023AE
:104000003B617B681B68DB683B617B681B689B6866
:104010003B613B696FE0BB695B0903F00103002B67
:1040200014D07B685B6D43F001027B685A65002306
:10403000FB607B681B689B68FB607B681B681A6879
:104040007B681B6822F040021A60FB687B685B6D2E
:10405000002B4FD07B681B685A687B681B6822F076
:10406000E0025A607B68012283F85120FB6903F06B
:104070000203002B04D1FB6903F00103002B34D0B1
:104080007B681B685A687B681B6822F003025A60D1
:104090007B68DB6C002B11D07B68DB6C174A5A63A2
:1040A0007B68DB6C1846FEF7E1FB0346002B05D06E
:1040B0007B685B6D43F040027B685A657B689B6C54
:1040C000002B16D07B689B6C0C4A5A637B689B6CF8
:1040D0001846FEF7CBFB0346002B0AD07B685B6DCE
:1040E00043F040027B685A6503E0786800F008F806
:1040F00000E000BF00BF2037BD4680BD134100086F
:1041000080B483B000AF786000BF0C37BD4680BC80
:10411000704780B584B000AF78607B685B6AFB60F5
:10412000FB680022DA87FB680022DA86F868FFF76E
:10413000E7FF00BF1037BD4680BD000080B588B0E6
:1041400000AFF860B9603B601346FB71FDF72CFFD0
:104150000246BB6A9B1A3A681344FB61FDF724FFD1
:10416000B861394B1B685B011B0DFA6902FB03F355
:104170007B6154E03B68B3F1FF3F50D0FDF714FF83
:104180000246BB69D31AFA699A4202D9FB69002B2D
:104190003DD1FB681B685A68FB681B6822F0E0028F
:1041A0005A60FB685B68B3F5827F11D1FB689B683E
:1041B000B3F5004F04D0FB689B68B3F5806F07D15F
:1041C000FB681B681A68FB681B6822F040021A60D3
:1041D000FB689B6AB3F5005F0FD1FB681B681A6828
:1041E000FB681B6822F400521A60FB681B681A689F
:1041F000FB681B6842F400521A60FB68012283F8D6
:104200005120FB68002283F85020032317E07B69CC
:10421000002B01D10023FB617B69013B7B61FB68C3
:104220001B689A68BB681340BA689A420CBF0123A6
:104230000023DBB21A46FB799A429BD10023184631
:104240002037BD4680BD00BF0800002080B586B085
:1042500002AFF860B9607A60FB685B68B3F5827F93
:1042600011D1FB689B68B3F5004F04D0FB689B68D5
:10427000B3F5806F07D1FB681B681A68FB681B6881
:1042800022F040021A60FB685B68B3F5827F17D1A9
:10429000FB689B68B3F5806F12D17B680093BB68A5
:1042A00000220121F868FFF749FF0346002B1AD0CE
:1042B000FB685B6D43F02002FB685A65032313E043
:1042C0007B680093BB6800228021F868FFF736FF07
:1042D0000346002B07D0FB685B6D43F02002FB68B0
:1042E0005A65032300E0002318461037BD4680BD01
:1042F00080B586B002AFF860B9607A607B680093E1
:10430000BB6801220221F868FFF718FF0346002B63
:1043100007D0FB685B6D43F02002FB685A650323FE
:1043200013E07B680093BB6800228021F868FFF7E8
:1043300005FF0346002B07D0FB685B6D43F02002AE
:10434000FB685A65032300E0002318461037BD467A
:1043500080BD80B582B000AF78607B68002B01D152
:10436000012341E07B6893F83D30DBB2002B06D19E
:104370007B68002283F83C207868FDF7B7FB7B68F8
:10438000022283F83D207B681A687B680433194653
:10439000104600F091F97B68012283F846207B6883
:1043A000012283F83E207B68012283F83F207B684E
:1043B000012283F840207B68012283F841207B683A
:1043C000012283F842207B68012283F843207B6826
:1043D000012283F844207B68012283F845207B6812
:1043E000012283F83D20002318460837BD4680BDD2
:1043F00080B584B000AF786039603B68002B09D18C
:104400007B6893F83E30DBB2012B14BF01230023FD
:10441000DBB222E03B68042B09D17B6893F83F3084
:10442000DBB2012B14BF01230023DBB215E03B6894
:10443000082B09D17B6893F84030DBB2012B14BF05
:1044400001230023DBB208E07B6893F84130DBB244
:10445000012B14BF01230023DBB2002B01D0012369
:104460005EE03B68002B04D17B68022283F83E208B
:1044700013E03B68042B04D17B68022283F83F20C1
:104480000BE03B68082B04D17B68022283F84020B4
:1044900003E07B68022283F841207B681B680122CD
:1044A0003968184600F0FEFA7B681B681E4A934282
:1044B00007D17B681B685A6C7B681B6842F400421A
:1044C0005A647B681B68184A93420ED07B681B684D
:1044D000B3F1804F09D07B681B68144A934204D023
:1044E0007B681B68124A934211D17B681B689B68EA
:1044F00003F00703FB60FB68062B10D07B681B688A
:104500001A687B681B6842F001021A6007E07B684A
:104510001B681A687B681B6842F001021A6000235E
:1045200018461037BD4680BD002C014000040040F5
:104530000008004080B586B000AFF860B9607A60CE
:104540000023FB75FB6893F83C30012B01D102235B
:10455000AEE0FB68012283F83C207B680C2B00F264
:104560009F8001A252F823F09D450008A146000853
:10457000A1460008A1460008DD450008A146000844
:10458000A1460008A14600081F460008A1460008F1
:10459000A1460008A14600085F460008FB681B68AA
:1045A000B968184600F0F6F8FB681B689A69FB6862
:1045B0001B6842F008029A61FB681B689A69FB68F5
:1045C0001B6822F004029A61FB681B689969BB684A
:1045D0001A69FB681B680A439A6164E0FB681B6800
:1045E000B968184600F03CF9FB681B689A69FB68DB
:1045F0001B6842F400629A61FB681B689A69FB6859
:104600001B6822F480629A61FB681B689969BB6829
:104610001B691A02FB681B680A439A6143E0FB6846
:104620001B68B968184600F085F9FB681B68DA69F1
:10463000FB681B6842F00802DA61FB681B68DA69F4
:10464000FB681B6822F00402DA61FB681B68D96909
:10465000BB681A69FB681B680A43DA6123E0FB68E0
:104660001B68B968184600F0CFF9FB681B68DA6967
:10467000FB681B6842F40062DA61FB681B68DA6958
:10468000FB681B6822F48062DA61FB681B68D969E9
:10469000BB681B691A02FB681B680A43DA6102E007
:1046A0000123FB7500BFFB68002283F83C20FB7DE3
:1046B00018461837BD4680BD80B485B000AF78601D
:1046C00039607B681B68FB607B682F4A93420BD084
:1046D0007B68B3F1804F07D07B682C4A934203D0AC
:1046E0007B682B4A934208D1FB6823F07003FB6080
:1046F0003B685B68FA681343FB607B68224A93421D
:104700000BD07B68B3F1804F07D07B681F4A934280
:1047100003D07B681E4A934208D1FB6823F44073A0
:10472000FB603B68DB68FA681343FB60FB6823F0BF
:1047300080023B685B691343FB607B68FA681A6020
:104740003B689A687B68DA623B681A687B689A62A1
:104750007B680D4A934203D13B681A697B681A63F0
:104760007B6801225A617B681B6903F00103002BFF
:1047700005D07B681B6923F001027B681A6100BFCA
:104780001437BD4680BC7047002C01400004004037
:104790000008004080B487B000AF786039607B6863
:1047A0001B6A7B617B681B6A23F001027B681A62CB
:1047B0007B685B683B617B689B69FB60FB6823F0FF
:1047C0007003FB60FB6823F00303FB603B681B681E
:1047D000FA681343FB607B6923F002037B613B684B
:1047E0009B687A6913437B617B681C4A93420CD1B6
:1047F0007B6923F008037B613B68DB687A691343BC
:104800007B617B6923F004037B617B68134A9342DD
:1048100011D13B6923F480733B613B6923F400733E
:104820003B613B685B693A6913433B613B689B6949
:104830003A6913433B617B683A695A607B68FA685E
:104840009A613B685A687B685A637B687A691A6226
:1048500000BF1C37BD4680BC704700BF002C014024
:1048600080B487B000AF786039607B681B6A7B6179
:104870007B681B6A23F010027B681A627B685B68A6
:104880003B617B689B69FB60FB6823F4E043FB6052
:10489000FB6823F44073FB603B681B681B02FA68EB
:1048A0001343FB607B6923F020037B613B689B68BB
:1048B0001B017A6913437B617B681D4A93420DD1CA
:1048C0007B6923F080037B613B68DB681B017A69AD
:1048D00013437B617B6923F040037B617B68144A4F
:1048E000934213D13B6923F480633B613B6923F41A
:1048F00000633B613B685B699B003A6913433B6122
:104900003B689B699B003A6913433B617B683A694A
:104910005A607B68FA689A613B685A687B689A6358
:104920007B687A691A6200BF1C37BD4680BC70473D
:10493000002C014080B487B000AF786039607B689C
:104940001B6A7B617B681B6A23F480727B681A6236
:104950007B685B683B617B68DB69FB60FB6823F01D
:104960007003FB60FB6823F00303FB603B681B687C
:10497000FA681343FB607B6923F400737B613B6837
:104980009B681B027A6913437B617B681D4A9342D3
:104990000DD17B6923F400637B613B68DB681B02FC
:1049A0007A6913437B617B6923F480637B617B6855
:1049B000144A934213D13B6923F480533B613B6912
:1049C00023F400533B613B685B691B013A69134365
:1049D0003B613B689B691B013A6913433B617B6800
:1049E0003A695A607B68FA68DA613B685A687B68A2
:1049F000DA637B687A691A6200BF1C37BD4680BCE7
:104A0000704700BF002C014080B487B000AF7860D1
:104A100039607B681B6A3B617B681B6A23F48052A8
:104A20007B681A627B685B687B617B68DB69FB6023
:104A3000FB6823F4E043FB60FB6823F44073FB60F6
:104A40003B681B681B02FA681343FB603B6923F455
:104A500000533B613B689B681B033A6913433B610E
:104A60007B680F4A934209D17B6923F480437B61C1
:104A70003B685B699B017A6913437B617B687A6958
:104A80005A607B68FA68DA613B685A687B681A6426
:104A90007B683A691A6200BF1C37BD4680BC70470C
:104AA000002C014080B487B000AFF860B9607A6034
:104AB000BB6803F01F03012202FA03F37B61FB686A
:104AC0001A6A7B69DB431A40FB681A62FB681A6A40
:104AD000BB6803F01F03796801FA03F31A43FB680C
:104AE0001A6200BF1C37BD4680BC704780B485B0D9
:104AF00000AF786039607B6893F83C30012B01D1BE
:104B0000022346E07B68012283F83C207B68022276
:104B100083F83D207B681B685B68FB607B681B68D3
:104B20009B68BB60FB6823F07003FB603B681B68FD
:104B3000FA681343FB607B681B68FA685A607B68FD
:104B40001B68164A93420ED07B681B68B3F1804FF6
:104B500009D07B681B68124A934204D07B681B68AB
:104B6000104A93420CD1BB6823F08003BB603B68C2
:104B70005B68BA681343BB607B681B68BA689A605D
:104B80007B68012283F83D207B68002283F83C206B
:104B9000002318461437BD4680BC7047002C0140E6
:104BA000000400400008004080B582B000AF78608B
:104BB0007B68002B01D1012342E07B6893F84130F0
:104BC000DBB2002B06D17B68002283F84020786896
:104BD000FDF722F87B68242283F841207B681B685C
:104BE000DA687B681B6822F40052DA60786800F0AB
:104BF00071F97B681B681A697B681B6822F4904214
:104C00001A617B681B685A697B681B6822F02A025C
:104C10005A617B681B68DA687B681B6842F4005243
:104C2000DA607B6800225A647B68202283F8412086
:104C30007B68202283F842207B6800225A6300238D
:104C400018460837BD4680BD80B58AB002AFF8600F
:104C5000B9603B601346FB8000237B61FB6893F8DF
:104C60004130DBB2202B75D1BB68002B02D0FB8812
:104C7000002B01D101236EE0FB6800225A64FB681F
:104C8000212283F84120FDF78FF97861FB68FA88CB
:104C90009A84FB68FA88DA84FB689B68B3F5805FC6
:104CA00008D1FB681B69002B04D10023FB61BB68A2
:104CB000BB6103E0BB68FB610023BB612EE03B6886
:104CC00000937B6900228021F86800F048F80346D1
:104CD000002B05D0FB68202283F8412003233AE013
:104CE000FB69002B0BD1BB691B881A46FB681B684C
:104CF000C2F308025A60BB690233BB6107E0FB697B
:104D00001A78FB681B685A60FB690133FB61FB681A
:104D1000DB8C9BB2013B9AB2FB68DA84FB68DB8CCC
:104D20009BB2002BCBD13B6800937B6900224021D2
:104D3000F86800F014F80346002B05D0FB68202229
:104D400083F84120032306E0FB68202283F84120FA
:104D5000002300E0022318462037BD4680BD80B501
:104D600086B000AFF860B9603B601346FB713BE072
:104D70003B6AB3F1FF3F37D0FDF716F902463B68B7
:104D8000D31A3A6A9A4202D33B6A002B01D1032319
:104D90003AE0FB681B68DB6803F00403002B23D0B8
:104DA000BB68802B20D0BB68402B1DD0FB681B68E4
:104DB0001B6803F00803082B16D100237B61FB68F6
:104DC0001B681B687B61FB681B685B687B617B6998
:104DD000F86800F01DF8FB6808225A64FB6800229E
:104DE00083F8402001230FE0FB681B681A68BB684A
:104DF0001340BA689A420CBF01230023DBB21A4663
:104E0000FB799A42B4D0002318461837BD4680BDBE
:104E100080B495B000AF78607B681B680C337B630F
:104E20007B6B53E8003F3B633B6B23F49073FB6465
:104E30007B681B680C33FA6C3A64FB63F96B3A6C61
:104E400041E80023BB63BB6B002BE5D17B681B688B
:104E500014333B623B6A53E8003FFB61FB6923F07C
:104E60000103BB647B681B681433BA6CFA62BB62D3
:104E7000B96AFA6A41E800237B627B6A002BE5D1BC
:104E80007B681B6B012B19D17B681B680C33FB60A3
:104E9000FB6853E8003FBB60BB6823F010037B64F2
:104EA0007B681B680C337A6CBA617B617969BA697B
:104EB00041E800233B613B69002BE5D17B68202260
:104EC00083F842207B6800221A6300BF5437BD4636
:104ED00080BC704780B584B000AF78607B681B6889
:104EE0001B6923F440517B68DA687B681B680A43BE
:104EF0001A617B689A687B681B691A437B685B69E7
:104F00001343BB607B681B68DB6823F4B05323F05A
:104F10000C037A681268B9680B43D3607B681B681E
:104F20005B6923F440717B689A697B681B680A435C
:104F30005A617B681B682C4A934203D1FEF788FABA
:104F4000F86002E0FEF770FAF860FA6813469B001A
:104F500013449A001A447B685B689B00B2FBF3F32E
:104F6000224AA2FB03235B091901FA6813469B003E
:104F700013449A001A447B685B689B00B2FBF3F20F
:104F80001A4BA3FB02035B09642000FB03F3D31A53
:104F90001B013233154AA2FB03235B0903F0F00324
:104FA0001944FA6813469B0013449A001A447B681C
:104FB0005B689B00B2FBF3F20C4BA3FB02035B09A3
:104FC000642000FB03F3D31A1B013233074AA2FB10
:104FD00003235B0903F00F027B681B680A449A6095
:104FE00000BF1037BD4680BD003801401F85EB5122
:104FF000002B2DE9F0471D46BBBF03F100431D46C2
:1050000000232D2388B01446B8BF1446129A109E70
:105010001370149BDDF84CA023F02008B8F1460F64
:1050200005D0B8F1450F00D10136022300E003237B
:1050300007AA049206AACDE902A2CDE900362246CB
:105040002B4601F0B1F8B8F1470F074619D1119B73
:10505000DB070ED500EB0609002200232046294677
:10506000FBF7A2FC08B1CDF81C903022079B4B4502
:105070001ED33846079B159ADB1B136008B0BDE8AA
:10508000F087B8F1460F00EB0609E5D10378302B25
:105090000AD10022002320462946FBF785FC18B9D7
:1050A000C6F10106CAF80060DAF800309944D3E787
:1050B000591C07911A70D9E7F7B50029B6BF2D23FF
:1050C0002B23494209290270437029DD0DF10703A2
:1050D0001D460A27B1FBF7F61A4607FB16143034B3
:1050E00002F8014C0C46632C314603F1FF33F1DC2E
:1050F0003031941E03F8011C2346411CAB420AD3F5
:105100000DF109039B1AAC4288BF0023023303440C
:10511000181A03B0F0BD13F8016B01F8016FEDE749
:10512000302330318370C170031DF1E72DE9F04F5A
:1051300091B00C46DDF8688016461F46054600F023
:1051400021FF036818460893FBF702F800230E932B
:10515000D8F800300990073323F0070303F1080261
:1051600094F818A0D4F800B0C8F80020D3E900895A
:1051700029F000430B93CDF828804FF0FF32DDE992
:105180000A01C4E912899C4BFBF740FC70BBDDE9C6
:105190000A014FF0FF32984BFBF71AFC30BB00229C
:1051A000002340464946FBF709FC10B12D2384F843
:1051B0004330924A924BBAF1470F8CBF90469846C3
:1051C00003234FF0000923612BF0040323603346CF
:1051D0002146284600970FAA00F0D4F9013040F08C
:1051E00090804FF0FF3011B0BDE8F08F42464B4643
:1051F00040464946FBF70AFC48B14B46002BB8BF76
:105200002D23804AB8BF84F843307F4BD3E76368CF
:105210000AF0DF015A1C3FD10623636000224BF4E1
:105220008063236006920EAACDE904A20DAA039220
:105230000DF13302CDE901326368424600932846FE
:105240004B460A91FFF7D4FE0A99804647290D99EB
:1052500028D1C81C02DB6368994240DDAAF1020A2A
:105260005FFA8AFA5246013904F150000D91FFF7B6
:1052700023FF0E9A81461318012A236102DC22685B
:10528000D20701D5013323619DF83330002B9ED026
:105290002D2384F843309AE74729BFD1002BBDD195
:1052A0000123BAE7BAF1650FDCD9BAF1660F18D15C
:1052B000002963680BDD216113B92268D00702D58C
:1052C00001330B4423614FF00009A165DCE713B9FA
:1052D0002268D20701D50233F4E70123F2E74FF049
:1052E000670A0E9B994205DB23682161D807EAD53E
:1052F0004B1CE7E70029CCBF0122C1F10202134495
:10530000E0E723685A0507D4236942463146284618
:10531000B84701302BD164E7BAF1650F40F2DC8069
:10532000D4E9120100220023FBF73EFB002833D012
:10533000012331462846354AB84701303FF451AF82
:10534000DDE90D38434502DB2368D8070FD5DDE9D9
:10535000082331462846B84701303FF442AF4FF0AA
:10536000000908F1FF3804F11A0AC84509DC23686E
:105370009B0700F10281E0680F9B9842B8BF184676
:1053800031E70123524631462846B84701303FF401
:1053900028AF09F10109E8E70D9B002B38DC012358
:1053A00031462846194AB84701303FF41AAFDDE9C3
:1053B0000D3959EA030302D12368D907D7D5DDE9AE
:1053C000082331462846B84701303FF40AAF4FF072
:1053D000000A04F11A0B0D9B5B42534501DC4B465E
:1053E00093E701235A4631462846B84701303FF437
:1053F000F8AE0AF1010AEEE7FFFFEF7F7A970008A7
:1054000076970008829700087E9700088697000824
:10541000A36DDDF838A05345A8BF5346002B99462D
:1054200036DC4FF0000B29EAE97904F11A02A36D8A
:105430000A93A3EB09035B4531DC0D9B9A453ADCEB
:105440002368DA0737D40D9BAAEB03090A9BAAEB62
:1054500003039945A8BF9946B9F1000F33DC4FF01B
:10546000000829EAE97904F11A0B0D9BAAEB030362
:10547000A3EB090343457FF77AAF01235A46314630
:105480002846B84701303FF4ACAE08F10108ECE71C
:10549000424631462846B8470130C2D1A1E6012331
:1054A000314628460A92B84701303FF49AAE0A9A2C
:1054B0000BF1010BBBE73146DDE908232846B8476D
:1054C0000130C0D18DE60A9A4B4631462846424407
:1054D000B8470130C3D184E6DDF838A0BAF1010F36
:1054E00001DCDB0736D50123424631462846B84762
:1054F00001303FF476AEDDE9082331462846B8474F
:1055000001303FF46EAED4E91201002200230AF10B
:10551000FF3AFBF749FAC0B9534608F10102314698
:105520002846B84701300CD15BE601235A46314684
:105530002846B84701303FF454AE08F10108D04581
:10554000F3DB4B4604F15002E0E64FF0000804F1B3
:105550001A0BF4E701234246E1E701234A463146AC
:105560002846B84701303FF43CAE08F10108E36833
:105570000F995B1A4345F0DCFDE64FF0000804F19B
:105580001909F4E72DE9F047164698468A680B6931
:1055900007469342B8BF1346336091F843200C4648
:1055A000DDF820900AB1013333602368990642BFC9
:1055B000336802333360256815F0060506D104F11F
:1055C000190AE36832689B1AAB422BDC94F843302B
:1055D0002268003B18BF0123920630D4414638466A
:1055E00004F14302C847013023D02368226903F045
:1055F0000603042B14BF002533684FF0000608BFD4
:10560000E56804F11A0408BFED1A54F8123C08BF0B
:1056100025EAE5759342C4BF9B1AED18B5421AD12D
:10562000002008E00123524641463846C847013071
:1056300003D14FF0FF30BDE8F0870135C1E73020DE
:10564000E11881F843005A1C94F8451022440233B3
:1056500082F84310C2E70123224641463846C84734
:105660000130E6D00136D9E72DE9FF470F7E91469C
:10567000782F80460C469A460C9E01F1430207D8CB
:10568000622F0AD8002F00F0D180582F00F0B88088
:1056900004F1420684F842703AE0A7F16303152B47
:1056A000F6D801A151F823F001570008155700085A
:1056B000915600089156000891560008915600082E
:1056C0001557000891560008915600089156000899
:1056D00091560008135800083F570008CD5700089E
:1056E0009156000891560008355800089156000858
:1056F0003F5700089156000891560008D5570008FA
:1057000033681A1D1B68326004F1420684F8423087
:1057100001239CE033682068191D3160060601D51D
:105720001D6803E04506FBD5B3F90050002D03DAF0
:105730002D236D4284F843300A23584811E0216834
:105740003368080653F8045B02D4490648BFADB27B
:105750006F2F336014BF0A2308235048002184F8B8
:1057600043106668002EA66005DB21682E4321F0F9
:10577000040121604BD01646B5FBF3F103FB115732
:10578000C75D06F8017D2F46BB420D46F4D9082BB4
:105790000BD12368DF0708D5236961689942DEBF12
:1057A000302306F8013C06F1FF36921B22614B467E
:1057B00021464046CDF800A003AAFFF7E3FE0130E2
:1057C0004AD14FF0FF3004B0BDE8F087236843F0C2
:1057D000200323607827324884F8457023683168B5
:1057E0001F0651F8045B02D45F0648BFADB23160BA
:1057F000D90744BF43F0200323601DB11023ADE758
:105800002648E9E7236823F020032360F6E71646DD
:10581000BDE733682568181D616930602E061B6876
:1058200001D5196002E06806FBD5198000231646F1
:105830002361BCE7336800211A1D32601E6862686C
:10584000304600F016FC08B1801B6060636823617D
:10585000002384F84330AAE732464946404623698C
:10586000D0470130ADD023689B0713D4E068039B79
:105870009842B8BF1846A6E701233246494640463B
:10588000D04701309DD00135E36803995B1AAB42E4
:10589000F2DCEBE7002504F11906F5E7889700082C
:1058A000999700082DE9F04F87B003938B689146D4
:1058B0005A1EB2F5AE7F82BF6FF4AE7503EB050BD7
:1058C00040F25D130A464FF0000588BF8B600B68FD
:1058D000804643F4F06342F81C3B0C4698BF4FF0FF
:1058E000000B1646AA462F46CDE9045501920295B3
:1058F000A2685AB1D9F800301B784E2B62D8402BE1
:105900003AD8A3F12B01C8B20E2838D91FB12368A9
:1059100023F4807323600AF1FF3ABAF1010F00F219
:105920001481019B9E4200F20581012007B0BDE871
:10593000F08FA3F161020D2AE8D801A151F822F0FD
:10594000895A00080D5900080D5900080D59000822
:10595000E55A0008BF5A00080D5900080D59000803
:10596000975A00080D5900080D5900080D590008F4
:105970000D590008535A0008A3F14102DBE70E2934
:10598000C4D801A050F821F0435A00080D5900086E
:10599000435A0008D35A00080D590008E559000879
:1059A000295A0008295A0008295A0008295A0008CB
:1059B000295A0008295A0008295A0008295A0008BB
:1059C000295A00086E2B09D8602BB2D8542B7BD0F3
:1059D000592B9BD1072D99D108252FE0742B73D01B
:1059E000792BF6E72168C8051ED521F080012160DA
:1059F0000137BBF1000F03D001320BF1FF3BA26076
:105A0000A368013BA360236901332361D9F8043003
:105A1000013B002BC9F8043040F38380D9F80030F3
:105A20000133C9F8003063E71AEB05017FF46EAF6C
:105A30000D468A46226822F4C072226006F8013BB5
:105A4000DEE7226810067FF561AF22F08002226057
:105A5000F4E7BAF1000F0CD177B9226802F4E061E3
:105A6000B1F5E06F08D122F4F0624FF0010A226034
:105A7000E4E7BAF1020F51D0012D02D0042D7FF4DA
:105A800045AF0135EDB2D9E7BAF1010F7FF43EAF72
:105A90004FF0020AD2E775B9002F7FF438AF2268C1
:105AA00002F4E061B1F5E06F40F0FF8022F4F062B3
:105AB00001252260C2E7032DE3D0052DDFE7022D8B
:105AC0007FF424AF0325B9E7062D7FF41FAF072528
:105AD000B4E7226891057FF519AF22F420722260A5
